:020000040800F2
:10000000D0060020D5010008C3190008F90B00082C
:10001000BF1900081D080008B31F000800000000F9
:10002000000000000000000000000000A51A000809
:100030002108000800000000351A0008911B000884
:10004000EF010008EF010008EF010008EF010008D0
:10005000EF010008EF010008EF010008EF010008C0
:10006000EF010008EF010008EF010008EF010008B0
:10007000EF010008EF010008EF010008EF010008A0
:10008000EF010008EF010008EF010008EF01000890
:10009000EF010008EF010008EF010008EF01000880
:1000A000EF010008EF010008EF010008351E00080D
:1000B000EF010008EF010008EF010008EF01000860
:1000C000EF010008EF010008EF010008EF01000850
:1000D000EF010008EF010008EF010008EF01000840
:1000E000EF010008EF010008EF010008EF01000830
:1000F000EF010008EF010008EF010008EF01000820
:10010000EF010008EF010008EF010008EF0100080F
:10011000EF010008EF010008EF010008EF010008FF
:10012000EF010008EF010008EF010008EF010008EF
:1001300000F002F800F03FF80AA090E8000C8244BA
:100140008344AAF10107DA4501D100F034F8AFF297
:10015000090EBAE80F0013F0010F18BFFB1A43F0A5
:100160000103184794640000B4640000103A24BFEF
:1001700078C878C1FAD8520724BF30C830C144BF0C
:1001800004680C607047000000230024002500264E
:10019000103A28BF78C1FBD8520728BF30C148BFEA
:1001A0000B607047642900F07180002070471FB514
:1001B0001FBD10B510BD00F0CEF91146FFF7F7FFD7
:1001C00002F05AF800F0ECF903B4FFF7F2FF03BCB9
:1001D00000F0F4F90948804709480047FEE7FEE7C8
:1001E000FEE7FEE7FEE7FEE7FEE7FEE7FEE7FEE7E7
:1001F00004480549054A064B70470000951B000856
:1002000031010008D0000020D0060020D0020020DC
:10021000D00200200FB41CB5074B06AA7B446946E8
:100220000090059800F07FF90020694600F08EF9F3
:100230001CBC5DF814FB00002D03000070B50446E3
:1002400085690068C10601D5302600E02026C00778
:1002500007D070BDD4E9012130469047206A401C88
:1002600020626D1EF6D570BD70B5044685690078B4
:10027000C00707D170BDD4E9012120209047206A32
:10028000401C20626D1EF6D570BD00002DE9F041C6
:100290000646002410687529314616A510D0AFF324
:1002A0000080002802DA404213A507E031688A077F
:1002B00001D512A502E0490704D511A5012401E0EA
:1002C000AFF3008000210A2206F1240709E0B0FB09
:1002D000F2FCB0FBF2F302FB1C00303078541846FD
:1002E000491C0028F3D123462A463046BDE8F04198
:1002F00000F0BBB8000000002D0000002B00000043
:10030000200000002DE9F0474FF0000A894604461E
:10031000C0F820A02046E1688847002876D025282C
:1003200006D0D4E901219047206A401C2062F1E701
:10033000E168204600268847C4F81CA0054600272F
:10034000C4F818A02A2D09D0284601F034FE38B38D
:1003500004EB8708303DC8F8185019E059F8041B21
:10036000204604EB87029161E1688847012F05462A
:1003700018D1E069002820DA26F020061DE0D8F820
:10038000180000EB800005EB40003038C8F818007A
:100390002046E1688847054601F00DFE0028EED1B1
:1003A000012F0AD02E2D08D12046E16888477F1CF6
:1003B0000546022F46F02006C4DBA069002803DAB8
:1003C000404246F00106A061F00701D026F0100679
:1003D0006C2D0AD0682D08D04C2D39D06A2D35D01F
:1003E000742D35D07A2D33D016E0E1682F462046A3
:1003F0008847B84205460AD16C2F27D04FF4806059
:10040000E168064320468847054605E027E06C2F53
:100410001AD04FF4807006430DB3A5F1410019289E
:1004200002D8203546F400664A4629462046266012
:100430004E46FFF7B7FE80B101280BD0F61D26F01F
:10044000070000F1080965E74020E4E78020D7E7CE
:100450000020D5E706F104095CE7284661E7206A39
:10046000BDE8F0877047704770472DE9F0470D46AB
:1004700099469246044600F124080168880604D58E
:10048000E06921F01001216000E00120A84201DDB7
:10049000471B00E00027A1697A1902EB0900081A3E
:1004A000A0612078C00602D42046FFF7C7FE0026D0
:1004B00008E0D4E901211AF806009047206A401CA0
:1004C000761C20624E45F4DB2078C0060AD5204613
:1004D000FFF7B4FE06E0D4E9012130209047206AFE
:1004E000401C2062381EA7F10107F4DC07E0D4E9C4
:1004F000012118F805009047206A401C2062281E40
:10050000A5F10105F3DC2046FFF7AEFE20780006DA
:1005100002D50220BDE8F0870120FBE701694A1CF3
:1005200002610878704700B58FB0CDE90131002134
:10053000059105497944CDE9031011466846FFF756
:10054000E1FE0FB000BD0000E5FFFFFF0A6802F802
:10055000010B0A607047754600F02CF8AE460500A6
:100560006946534620F00700854618B020B5FFF7CE
:100570003FFEBDE820404FF000064FF000074FF06F
:1005800000084FF0000B21F00701AC46ACE8C009B1
:10059000ACE8C009ACE8C009ACE8C0098D467047BA
:1005A00010B50446AFF300802046BDE81040FFF7C9
:1005B0000BBE000000487047700000200149182061
:1005C000ABBEFEE726000200704721B1826842F010
:1005D0000102826003E0826822F0010282607047BB
:1005E000014600208A6802F004020AB1012000E0FE
:1005F000002070470146C86C80B270470246002058
:1006000013680B400BB1012000E000207047014649
:1006100000208A6802F008020AB1012000E00020F0
:100620007047000030B502460020002350680F4C90
:1006300020400D790C6844EA0524204350609068FE
:100640000B4C2040D1E902542C434D7944EA450437
:1006500020439060D06A20F470000C7C641EE4B2E9
:10066000234340EA0350D06230BD0000FFFEF0FF9C
:10067000FDF7F1FFF0B504460D4600200021092DDD
:1006800011DDE068A5F10A0606EB4607072606FA23
:1006900007F18843A5F10A0606EB460603FA06F1C0
:1006A0000843E0600CE0206905EB4507072606FAE1
:1006B00007F1884305EB450603FA06F1084320617C
:1006C000072A0FDA606B561E06EB86071F2606FA0E
:1006D00007F18843561E06EB860605FA06F1084325
:1006E000606322E00D2A0FDA206BD61F06EB860727
:1006F0001F2606FA07F18843D61F06EB860605FA81
:1007000006F10843206310E0E06AA2F10D0606EB53
:1007100086071F2606FA07F18843A2F10D0606EBAD
:10072000860605FA06F10843E062F0BD816841F0F3
:1007300008018160704721B1826842F4A0028260A2
:1007400003E0826822F4A00282607047816841F071
:10075000040181607047000010B501210648FFF7D1
:10076000EAFF00BF02210448FFF748FF0028F9D044
:100770000148FFF73FFF10BD0024014000B587B0DE
:100780000121480201F07EF90121082001F07AF9E7
:100790004FF4004001F05AF900208DF81B000120B1
:1007A000ADF8180003208DF81A0006A9194800F0CA
:1007B000C6F80523012208211748FFF75BFF002038
:1007C000019004904FF46020039000208DF8090000
:1007D0008DF8080001208DF8140001A90E48FFF7DC
:1007E00021FF01210C48FFF7F0FE0B48FFF79EFFA9
:1007F00000BF0948FFF70BFF0128FAD00648FFF7B2
:10080000A5FF00BF0448FFF7EBFE0128FAD007B0B0
:1008100000BD0000000C01400024014000BFFEE7C5
:100820007047000051B18200A2F1C042126842F04C
:1008300001038200A2F1C042136009E08200A2F12C
:10084000C0421268034B1A408300A3F1C0431A60F0
:1008500070470000FEFF0F00D0E901121143C2688B
:100860001143026911434269114382691143C2690C
:100870001143026A1143426A1143826A1143C26AF8
:100880001143026B114302689200A2F1C042116051
:10089000816808290BD101688900A1F1C04109686C
:1008A00041F0400201688900A1F1C0410A60416B3A
:1008B0000968426B526841EA0211426B926841EA50
:1008C0000221426B928941EA0241426B128A41EA5B
:1008D0000251426B127D41EA0261426B92691143FF
:1008E0000268521C9200A2F1C0421160C16AB1F5C7
:1008F000804F1BD1816B0968826B526841EA0211FB
:10090000826B926841EA0221826B128A41EA0251AB
:10091000826B127D41EA0261826B92691143026827
:100920009200A2F1C042C2F8041107E06FF07042D9
:1009300001688900A1F1C041C1F8042170472DE987
:10094000F041024600250026002000230024002755
:1009500091F803C00CF00F0591F803C00CF0100CD7
:10096000BCF1000F03D091F802C04CEA050591F8E4
:1009700000C0BCF1000F31D0146800202BE04FF014
:10098000010C0CFA00F3B1F800C00CEA03069E4219
:1009900020D183004FF00F0C0CFA03F7BC4305FA8B
:1009A00003FC4CEA040491F803C0BCF1280F06D103
:1009B0004FF0010C0CFA00FCC2F814C00AE091F8E8
:1009C00003C0BCF1480F05D14FF0010C0CFA00FC3C
:1009D000C2F810C0401C0828D1D31460B1F800C080
:1009E000BCF1FF0F34DD546800202EE000F1080C4C
:1009F0004FF0010808FA0CF3B1F800C00CEA030646
:100A00009E4221D183004FF00F0C0CFA03F7BC4338
:100A100005FA03FC4CEA040491F803C0BCF1280F6A
:100A200005D100F1080C08FA0CF8C2F8148091F80E
:100A300003C0BCF1480F07D100F1080C4FF00108CA
:100A400008FA0CF8C2F81080401C0828CED3546075
:100A5000BDE8F08108B50121502001F013F87020A5
:100A6000ADF8000002208DF802001C48007818B98B
:100A700048208DF8030002E010208DF8030069463D
:100A80001748FFF75CFF4FF40050ADF8000002205C
:100A90008DF802001148007818B948208DF803003D
:100AA00002E010208DF8030069460E48FFF747FF6B
:100AB0000F20ADF8000002208DF8020007480078F2
:100AC00018B910208DF8030002E048208DF80300CB
:100AD00069460348FFF733FF08BD0000000000200F
:100AE00000180140001001400146886880B270473C
:100AF0000246002093680B400BB1012000E000206B
:100B0000704741617047016170470AB1016100E0BF
:100B10004161704730B502461648006804890021DB
:100B200023E014480068006801EB410505EBC1159E
:100B3000405D1578A84216D10E480068006801EBA8
:100B4000410505EBC115284440785578A8420AD1E3
:100B500008480068006801EB410505EBC115284411
:100B6000C31C184630BD481C81B2A142D9DB00200D
:100B7000F8E700004800002000B585B0012140F6EC
:100B8000040000F07FFF4FF48070ADF810000420E7
:100B90008DF8130004A91648FFF7D1FE0020ADF828
:100BA0000400ADF806000120ADF808000020ADF803
:100BB0000A00ADF80C0001A90E4801F06FF91B20E6
:100BC0008DF8000000208DF8010001208DF8020052
:100BD0008DF80300684600F0F5FE01220221054869
:100BE00001F0B2F90121034801F03BF905B000BD65
:100BF00000080140002C014000BFFEE710B500F0E6
:100C00004DF8412828D012DC212823D008DC1128F7
:100C10001ED0122824D014282AD0182838D12FE02A
:100C200022281FD0242825D0282831D12AE0812845
:100C300014D006DC422817D044281DD0482827D1DC
:100C400022E0822812D0842818D0882820D11DE0E4
:100C500001241FE002241DE003241BE00C2419E002
:100C6000042417E0052415E0062413E00D2411E008
:100C700007240FE008240DE009240BE00E2409E00E
:100C80000A2407E0002405E00B2403E00F2401E020
:100C9000FF2400BF00BF204610BD00002DE9F04139
:100CA0004FF00008002600270025002400220F2115
:100CB0003A48FFF72AFF012270213848FFF725FF45
:100CC000012251033648FFF720FF022001F07AF994
:100CD0003248FFF709FF00F070044FF4005130482C
:100CE000FFF706FF0546702C01D1012D51D01420CD
:100CF00001F068F92948FFF7F7FE00F070044FF49F
:100D000000512748FFF7F4FE0546702C01D1012D54
:100D10003CD035B144F08000C043C6B206F0F006C6
:100D200000E0802601201F490870FFF793FE012292
:100D30000F211A48FFF7E9FE002270211748FFF73C
:100D4000E4FE00224FF400511548FFF7DEFE0220BA
:100D500001F038F91148FFF7C7FE044604F00F0010
:100D6000C043C7B207F00F0703E00C48FFF7BCFE13
:100D7000044604F00F000F28F7D10020094908703D
:100D8000FFF768FEF01900F0FF0804E04FF0FF08DD
:100D900001E04FF0FF084046BDE8F0810018014037
:100DA000001001400000002070B5044600250B48EB
:100DB000038842880021084600F0DEFC00F0DAFDDE
:100DC00000BF02E0064804806D1C04480088034907
:100DD00049884843A842F5D870BD00006000002053
:100DE0000000026008B50121602000F04BFE4CF6C7
:100DF000B370ADF8000003208DF8020018208DF8C4
:100E0000030069461248FFF79AFD4FF68070ADF86F
:100E1000000003208DF8020018208DF803006946B9
:100E20000C48FFF78CFD4FF44050ADF80000032054
:100E30008DF8020010208DF8030069460448FFF782
:100E40007EFD4FF400510248FFF75DFE08BD000033
:100E500000140140001801402DE9F04105460E46FE
:100E60001446A4F120010C4A1268D28851430A4A60
:100E700012689288D01DC21700EB5272D210064B36
:100E80001B681B6801FB02373A463146284600F0D2
:100E9000FBF8BDE8F0810000440000202DE9F0419E
:100EA00005460E46144600272046FFF733FE074648
:100EB0003A463146284600F035F9BDE8F081000099
:100EC0002DE9F04106460F4614463546B84629E05E
:100ED00017480088174909688988401AA8421ADB10
:100EE000207880280BDA227841462846FFF7B4FFA5
:100EF000104800688088284485B2641C12E02246AD
:100F000041462846FFF7CAFF0B48006880882844FE
:100F100085B2A41C06E0002506480068C08840444D
:100F20001FFA80F820780028D2D1BDE8F0810000B7
:100F30006000002044000020480000205149087152
:100F4000032826D14FF4A0714E4A1180F021518020
:100F50001146098948F25252914209D12C21494A3D
:100F600051812A2191812B21D1816021D18088E07A
:100F70004449098945F208429142F8D12221414A67
:100F80005181202191812121D18141F20801D1801B
:100F900077E0042826D14FF4A0713A4A1180F0215D
:100FA00051801146098948F25252914209D12C21AF
:100FB000344A51812A2191812B21D181A021D180D4
:100FC0005FE03049098945F20842914259D1222116
:100FD0002C4A5181202191812121D18141F2380176
:100FE000D1804EE0012826D1F021264A11804FF40D
:100FF000A07151801146098948F25252914209D19B
:101000002C21204A51812A2191812B21D181C0217B
:10101000D18036E01B49098945F20842914230D11E
:101020002221184A5181202191812121D1814FF41F
:101030008151D18025E0F021124A11804FF4A07136
:1010400051801146098948F25252914209D12C210E
:101050000C4A51812A2191812B21D1810021D180FB
:101060000FE00849098945F20842914209D122213D
:10107000044A5181202191812121D18141F2100125
:10108000D1807047600000202DE9F0470746884670
:101090001646002500241F4800688088C01DC0F344
:1010A000C7091C48006883881A480068C2884146FE
:1010B000384600F061FB00F05DFC00BF1CE000243E
:1010C00014E005FB09F000EBD400305C04F00702EB
:1010D00080211141084020B90F48008800F044FCED
:1010E00003E00E48008800F03FFC641C09480068DB
:1010F0008088A042E5D86D1C06480068C088A842D8
:10110000DDD80748038842880021084600F034FBF8
:10111000BDE8F087440000204E0000204C00002075
:10112000600000202DE9F047074688461546002656
:101130000024254800688088C01DC0F3C7092248E4
:101140000068838820480068C2884146384600F01D
:1011500013FB00F00FFC00BF28E000241FE0C5B126
:1011600006FB09F101EBE401695CE21704EB527242
:10117000D210A4EBC20380221A41114021B91348B6
:10118000008800F0F1FB08E01148008800F0ECFB5B
:1011900003E00E48008800F0E7FB601C84B20A48B8
:1011A00000688088A042DADC701C86B206480068BD
:1011B000C088B042D1DC0748038842880021084635
:1011C00000F0DAFABDE8F087480000204E00002069
:1011D0004C0000206000002000B597B001210802FB
:1011E00000F040FC0121084600F04CFC0220019078
:1011F00000200290052003900020049005900690A6
:101200004FF08050079000200890099008200A9025
:1012100010200B9000200C900E900F9010904FF427
:1012200080501190002012901390149001A81590F6
:10123000169008A8FFF710FB01210020FFF7F2FA33
:1012400017B000BD10B5FFF7CDFDFFF7C5FF0A20B1
:1012500000F0B8FE4FF48051FE48FFF752FC0A2020
:1012600000F0B0FE4FF48051FA48FFF74CFC0A2022
:1012700000F0A8FE042000F035FA00F02DFAF6493F
:10128000088100F029FAF4490881084600894FF6E0
:10129000FF7101EA0020F049088100F01DFAEE49D3
:1012A00009890843EC4908810846008948F25251EF
:1012B000884204D0002000F015FAE7490881E6488A
:1012C000008948F2525188427ED1112000F02CFB57
:1012D000782000F077FE362000F026FB002000F09A
:1012E0001DFB3A2000F020FB052000F017FBB22088
:1012F00000F01AFB0C2000F011FB0C2000F00EFB9C
:10130000002000F00BFB332000F008FB332000F03E
:1013100005FBB72000F008FB352000F0FFFABB20EA
:1013200000F002FB282000F0F9FAC02000F0FCFADF
:101330002C2000F0F3FAC22000F0F6FA012000F0B1
:10134000EDFAC32000F0F0FA0B2000F0E7FAC42019
:1013500000F0EAFA202000F0E1FAC62000F0E4FAFA
:101360000F2000F0DBFAD02000F0DEFAA42000F01D
:10137000D5FAA12000F0D2FAE02000F0D5FAD02072
:1013800000F0CCFA012000F0C9FA082000F0C6FAFB
:101390000F2000F0C3FA112000F0C0FA2A2000F05C
:1013A000BDFA362000F0BAFA552000F0B7FA442012
:1013B00000F0B4FA3A2000F0B1FA0B2000F0AEFAD7
:1013C000062000F0ABFA00E04AE0112000F0A6FA97
:1013D000202000F0A3FAE12000F0A6FAD02000F0CF
:1013E0009DFA022000F09AFA072000F097FA0A20EE
:1013F00000F094FA0B2000F091FA182000F08EFA19
:10140000342000F08BFA432000F088FA4A2000F0E4
:1014100085FA2B2000F082FA1B2000F07FFA1C20B6
:1014200000F07CFA222000F079FA1F2000F076FA12
:10143000292000F079FA2C2000F076FA0320FFF73B
:101440007DFD362000F070FA8349C88800F066FA06
:101450008148038842880021084600F08DF928E180
:101460007D48008945F208418842F8D14FF48071E7
:10147000012000F089FA4FF4E061022000F084FAC4
:1014800041F23001032000F07FFA0021042000F037
:101490007BFA40F20221082000F076FA00210920B0
:1014A00000F072FA00210A2000F06EFA00210C20F0
:1014B00000F06AFA00210D2000F066FA00210F20EA
:1014C00000F062FA0021102000F05EFA00211120E5
:1014D00000F05AFA0021122000F056FA00211320E1
:1014E00000F052FAC82000F06DFD0721112000F035
:1014F0004BFA322000F066FD41F2B021102000F0DE
:1015000043FA322000F05EFD40F2BD11122000F0DF
:101510003BFA322000F056FD4FF4A051132000F0AA
:1015200033FA0E21292000F02FFA322000F04AFD74
:101530000021202000F028FA40F23F11212000F085
:1015400023FA40F60D31302000F01EFA41F6231147
:10155000312000F019FA41F62641322000F014FA49
:1015600042F21C61332000F00FFA42F2194134209C
:1015700000F00AFA40F60B51352000F005FA41F26E
:101580000601362000F000FA4FF4C261372000F067
:10159000FBF940F20671382000F0F6F94FF4417182
:1015A000392000F0F1F940F605613A2000F0ECF93D
:1015B00040F601613B2000F0E7F94FF487713C20D1
:1015C00000F0E2F940F20E513D2000F0DDF940F26A
:1015D00003413E2000F0D8F940F207613F2000F0BF
:1015E000D3F90021502000F0CFF9EF21512000F075
:1015F000CBF90021522000F0C7F940F23F115320EF
:1016000000F0C2F94FF42741602000F0BDF901213C
:10161000612000F0B9F900216A2000F0B5F900213D
:10162000802000F0B1F90021812000F0ADF9002107
:10163000822000F0A9F90021832000F0A5F9002103
:10164000842000F0A1F90021852000F09DF91021EF
:10165000902003E0001401406000002000F094F9A5
:101660000021922000F090F90321932000F08CF9E2
:101670004FF48871952000F087F90021972000F041
:1016800083F90021982000F07FF90320FFF756FC32
:101690000D48C188032000F077F94FF489710720C5
:1016A00000F072F90848038842880021084600F0DB
:1016B00063F80649064800F027F94FF40051054841
:1016C000FFF71FFA10BD0000600000202C00002072
:1016D00014000020001401400148008870470000F9
:1016E00000000260014602480180801C00887047AB
:1016F000FEFF016003B5BDF8000003490880BDF896
:101700000400024908800CBD4C0000204E0000205F
:1017100010B503460C461748008948F252518842DA
:1017200015D114498989C8B200F0FEF8181200F0EA
:10173000F5F8D8B200F0F2F80E49C989C8B200F045
:10174000F3F8201200F0EAF8E0B200F0E7F80948F8
:10175000008945F2084188420BD106498989C8B2FF
:10176000194600F011F90349C989C8B2214600F0B1
:101770000BF910BD600000202DE9FC5F04460D460A
:10178000904699460026B2460027B34600200190B5
:1017900000905C48008948F25251884234D1264674
:1017A00004EB0900401E1FFA80FA2F4605EB0800E3
:1017B000401E1FFA80FB0196009752498989C8B2E2
:1017C00000F0B2F8301200F0A9F8F0B200F0A6F87C
:1017D0004FEA2A2000F0A2F80AF0FF0000F09EF87D
:1017E0004849C989C8B200F09FF8381200F096F84D
:1017F000F8B200F093F84FEA2B2000F08FF80BF0CE
:10180000FF0000F08BF877E03E48008945F2084180
:10181000884271D13B48007903281CD1394840885F
:10182000401BA0EB080086B236484088401B401E93
:101830001FFA80FA33480088001BA0EB090087B22A
:1018400030480088001B401E1FFA80FBCDF804A022
:10185000CDF800B040E02B48007904280ED12E4688
:1018600005EB0800401E1FFA80FA274604EB09002A
:10187000401E1FFA80FB019600972DE02148007959
:10188000012814D11F480088001BA0EB090086B274
:101890001C480088001B401E1FFA80FA2F4605EBEB
:1018A00008001FFA80FBCDF804A0009714E026463C
:1018B00004EB0900401E1FFA80FA12484088401BC2
:1018C000A0EB080087B20F484088401B401E1FFA5B
:1018D00080FB0196CDF800B03146502000F054F85E
:1018E0005146512000F050F83946522000F04CF893
:1018F0005946532000F048F8DDE90010FFF708FFD3
:10190000BDE8FC9F60000020024A1060024A11609E
:101910007047000044000020480000200149088072
:101920007047000000000260014908807047000015
:10193000FEFF01602DE9FE4304460D4616461F4694
:10194000DDF82880424607A101A8FEF763FC01A844
:101950003B46324629460090204600F01DF8BDE87F
:10196000FE830000253564000149088070470000AF
:101970000000026002484089024908807047000068
:1019800060000020FEFF0160024A1080921C11805E
:1019900070470000FEFF01602DE9F04106460F464A
:1019A00014461D46DDF8188029462046FFF7A2FEA2
:1019B000424639463046FFF783FABDE8F08100BF62
:1019C000FEE7704770B5002100230F22C47804B3EE
:1019D000154C246804F4E064C4F5E064210AC1F104
:1019E0000403CA40447804FA03F184781440214384
:1019F00009010E4C0678A155047804F01F05012456
:101A0000AC4005786D11AD0005F1E025C5F8004149
:101A100009E0047804F01F050124AC40044D067869
:101A2000761145F8264070BD0CED00E000E400E0C2
:101A300080E100E0704710B5FFF70CF8FFF702FCFB
:101A4000FFF79AF8FEF79AFE10BD0000014600204D
:101A5000034A506820F4404008435060704700003B
:101A60000010024029B1064A52690243044B5A61F0
:101A700004E0034A52698243014B5A6170470000F7
:101A80000010024029B1064A92690243044B9A6150
:101A900004E0034A92698243014B9A617047000057
:101AA00000100240704710B500F002F810BD0000B1
:101AB0000CB50020019000903348006840F480305D
:101AC0003149086000BF3048006800F400300090E1
:101AD0000198401C0190009818B90198B0F5A06FCA
:101AE000F1D12948006800F4003010B101200090C5
:101AF00001E0002000900098012843D123480068AD
:101B000040F01000214908600846006820F00300FA
:101B100008600846006840F0020008601A48406803
:101B2000194948600846406848600846406840F4E3
:101B3000806048600846406820F47C104860084691
:101B4000406840F4E81048600846006840F0807043
:101B5000086000BF0C48006800F000700028F9D051
:101B60000948406820F0030007494860084640687B
:101B700040F00200486000BF0348406800F00C00DD
:101B80000828F9D10CBD00000010024000200240DE
:101B90007047000010B51348006840F0010011497B
:101BA000086008464068104908400E4948600846E9
:101BB00000680E4908400B4908600846006820F498
:101BC000802008600846406820F4FE0048604FF41A
:101BD0001F008860FFF767FF4FF00060044908604E
:101BE00010BD0000001002400000FFF8FFFFF6FEED
:101BF00008ED00E0F0B50C46154600220021068CE9
:101C00004FF6FE773E400684028B018C4FF60C7631
:101C100032407E1C06EA03162E433243104EB04279
:101C20000ED0104EB0420BD0B0F1804F08D00E4E07
:101C3000B04205D00D4EB04202D00D4EB04206D19A
:101C40004FF6FD76314044F00106314305E04FF692
:101C5000F576314044F00106314302830184F0BD42
:101C6000002C014000340140000400400008004006
:101C7000000C0040F0B50C4615460022002100265D
:101C8000078C4FF6EF7C07EA0C070784028B018C68
:101C90004FF6FF7707EA041640F6FF473A404FF643
:101CA000FF7707EA03373A434FF6FF7707EA05273E
:101CB0003A43114FB8420ED0104FB8420BD0B0F19A
:101CC000804F08D00E4FB84205D00E4FB84202D018
:101CD0000D4FB84206D14FF6DF77394046F0100776
:101CE000394305E04FF65F77394044F01007394338
:101CF00002830184F0BD0000002C0140003401404B
:101D00000004004000080040000C0040F0B50C4604
:101D10001546002200210026078C4FF6FF6C07EACB
:101D20000C070784828B018C4FF6FF7707EA0426A5
:101D30004FF60C773A404FF6FF7707EA03172F4329
:101D40003A43114FB8420ED0104FB8420BD0B0F109
:101D5000804F08D00E4FB84205D00E4FB84202D087
:101D60000D4FB84206D14FF6FF57394046F4807701
:101D7000394305E04FF2FF57394044F48077394347
:101D800082830184F0BD0000002C0140003401403A
:101D90000004004000080040000C0040F0B50C4674
:101DA0001546002200210026078C4EF6FF7C07EA2C
:101DB0000C070784828B018C4FF6FF7707EA043605
:101DC00040F6FF473A404FF6FF7707EA05273A43C8
:101DD0004FF6FF7707EA03373A43114FB8420ED068
:101DE000104FB8420BD0B0F1804F08D00E4FB84220
:101DF00005D00E4FB84202D00D4FB84206D14DF675
:101E0000FF77394046F48057394305E047F6FF57DE
:101E1000394044F48057394382830184F0BD000087
:101E2000002C014000340140000400400008004044
:101E3000000C004010B50221064800F01EF840B129
:101E40000221044800F00AF803480088401C0249B7
:101E5000088010BD002C014050000020CA430282BF
:101E6000704721B1028842F00102028004E002883A
:101E70004FF6FE731A400280704730B502460020CC
:101E800000230024158A05EA0103958905EA010467
:101E900013B10CB1012000E0002030BD70B5054643
:101EA0000C46244885420ED0234885420BD0B5F11C
:101EB000804F08D02148854205D02148854202D074
:101EC0002048854200D100E000BF208850B9238916
:101ED000A28861882846FFF78DFEE188284600F039
:101EE0003CF825E0208804280AD12389A28861884B
:101EF0002846FFF7BFFEE188284600F037F817E0D4
:101F0000208808280AD12389A28861882846FFF7FB
:101F1000FDFEE188284600F036F809E02389A28812
:101F200061882846FFF73AFFE188284600F034F838
:101F300070BD0000002C014000340140000400404E
:101F400000080040000C00401AB183890B438381D4
:101F500002E083898B4383817047028B4FF6F373D2
:101F60001A400283028B0A4302837047028B4FF2AE
:101F7000FF331A400283028B4FF6FF7303EA0123FB
:101F80001A4302837047828B4FF6F3731A408283A1
:101F9000828B0A4382837047828B4FF2FF331A4051
:101FA0008283828B4FF6FF7303EA01231A438283F5
:101FB000704700BFFEE730380A2801D20120704781
:101FC0000020704700B5034603E04FF47A7000F03C
:101FD00005F8181EA3F10103F7D100BD00EBC00105
:101FE000C9004FF0E022516100219161052111618A
:101FF00000BF4FF0E021096901F480310029F8D0D9
:1020000004214FF0E02211617047000008B5002064
:10201000FEF7CAFE1EA000234FF6E0720A210090D0
:102020000846FFF7B9FC1DA000234FF6E0721E2101
:1020300000900A20FFF7B0FC1BA000234FF6E072CF
:102040001E2100904FF48C70FFF7A6FC17A0002310
:102050004FF6E072322100900A20FFF79DFC17A096
:1020600000234FF6E072322100904FF48C70FFF79E
:1020700093FC13A000234FF6E072462100900A2043
:10208000FFF78AFC252246218800FEF7E5FE08BD01
:10209000C6FBB3B5D2C7B1EDC5CC0000B5B1C7B072
:1020A000CBD9B6C83A0000004D2F5300D2D1D0D0C2
:1020B000CABBC0EFB3CCCAFD3A0000004D0000001F
:1020C000CAA3D3E0D3CDC1BF3A00000008B50020B9
:1020D000FEF76AFE1EA000234FF6E0720A21009070
:1020E0000846FFF759FC1EA000234FF6E0721E21A0
:1020F00000900A20FFF750FC1DA000234FF6E0726D
:102100001E2100904FF48C70FFF746FC19A00023AD
:102110004FF6E072322100900A20FFF73DFC1AA032
:1021200000234FF6E072322100904FF48C70FFF7DD
:1021300033FC16A000234FF6E072462100900A20DF
:10214000FFF72AFC252246218800FEF785FE08BD00
:102150004341522044415348424F41524400000001
:1021600043555252454E542053504545443A000081
:102170004D2F530054524156454C4C454420444940
:102180005354414E43453A004D0000004F494C2006
:102190004C4556454C3A000008B5054800880023D8
:1021A0004FF6E07246210090C820FFF7C3FB08BD40
:1021B0005A00002038B50C48008800234FF6E07222
:1021C0001E210090C820FFF7B5FB08480088782141
:1021D00090FBF1F084B200234FF6E0723221C82068
:1021E0000094FFF7A7FB38BD5600002058000020E0
:1021F00000200849088808490988491C064A1180B6
:1022000011460988B1F5FA7F03DD00211180014AEA
:1022100011807047500000205200002070B500254A
:10222000002400BF04E000F009F80444681CC5B2B3
:10223000FA2DF8DBFA2094FBF0F070BD70B50025A4
:10224000002400BF04E0FEF787FA0444681CC5B20E
:10225000FA2DF8DBFA20B4FBF0F070BD04480088DA
:1022600004490988084402490880084600887047E4
:102270005400002050000020FFF7DDFB0020FEF797
:1022800093FDFFF723FF00F04FF800F027F81FE061
:10229000FEF7B4FC0F49088008460088012802D0E8
:1022A000022806D102E0FFF711FF03E0FFF7AEFEC0
:1022B00000E000BF00BFFFF77DFF00F035F8FFF73B
:1022C0006BFF00F00BF804480088401C02490880AE
:1022D000DEE700005E0000205C00002010B5104822
:1022E0000088B0F5487F1ADBFFF798FF84B22420FE
:1022F00094FBF0F00B490880084600880D2802DAAC
:102300000020088006E007480088642802DD642079
:1023100004490880002002490880002400BF10BD45
:102320005C0000205A00002010B5FFF761FF034950
:102330000880FFF793FF0249088010BD5600002077
:102340005800002000000000000000002020202095
:102350000020000050500000000000002850F850FD
:10236000F850A0002030603010602000202018605D
:10237000101000000038206050780000202020005D
:1023800000000000102020202020100040202020ED
:10239000202040002070205000000000002020F885
:1023A000202000000000000010202000000000702D
:1023B000000000000000000000200000102020208D
:1023C00040408000205050505020000060202020CD
:1023D00020F80000205020204070000020501020E5
:1023E000106000001030507810380000704060100D
:1023F00050200000304060505060000070501020AD
:10240000202000002050205050200000305050303C
:1024100010600000000020000020000000001000FC
:1024200010200000001020C020100000007000707C
:102430000000000000402018204000002050102024
:102440000020000030484858484038006020507054
:1024500088D80000F048704848F0000070504040B4
:1024600040300000F048484848F00000F84860401C
:1024700048F80000F848604040E0000070404058D4
:1024800050300000E848784848E8000070202020DC
:10249000207000003810105050200000D85060709C
:1024A00050D80000E040404048F80000D8D8D8A8F4
:1024B00088D80000D868685858E800003048484874
:1024C00048300000F048487040E00000304848487C
:1024D00048301800F048487048E80000705020105C
:1024E00050700000F8A8202020700000D84848480C
:1024F00048300000D888485050300000D888A8A83C
:10250000A8500000D850202050D80000D888502073
:1025100020700000784810204878000030202020EB
:10252000202030008040402020201000602020200B
:10253000202060002020500000000000000000006B
:10254000000000F820100000000000000000301023
:1025500070780000C040704848F0000000007040F3
:1025600040700000180838484838000000007070BB
:10257000403000001020702020700000000038481B
:1025800048380830C040704848E80000200060200B
:10259000207000002000701010101070C0405870A3
:1025A00050D8000060202020207000000000D0A83B
:1025B000A8A800000000F04848C80000000030480B
:1025C000483000000000F048487040E00000384803
:1025D00048380818000078202070000000003020E3
:1025E000106000000040F040483000000000D84873
:1025F000483800000000C848303000000000D8A86B
:10260000A850000000004830304800000000D850BA
:1026100050202060000078502878000010202060B2
:1026200020201000202020202020200040202030CA
:1026300020204000000000285000000000000000A2
:10264000000000000000000000101010101000003A
:1026500010000000006C484800000000000000006E
:10266000001414287C287C285050000000103840AA
:102670004038487010100000002050200C700814E2
:10268000080000000000001820205448340000001A
:1026900000101010100000000000000000080810DA
:1026A000101010101008080000202010101010103A
:1026B0001020200000107C102828000000000000DE
:1026C0000000101010FE10101000000000000000AC
:1026D000000000181030200000000000007C000006
:1026E000000000000000000000000030300000008A
:1026F0000004040808101020204000000038444462
:1027000044444444380000000030101010101010F1
:102710007C00000000384404081020447C000000C5
:10272000003844041804044438000000000C141459
:1027300024447E040E000000003C202038040444A1
:1027400038000000001C2040784444443800000059
:10275000007C4404080808101000000000384444BD
:10276000384444443800000000384444443C0408E1
:102770007000000000000030300000303000000029
:1027800000000018180000183020000000000C1095
:10279000608060100C000000000000007C007C00E5
:1027A000000000000000C02018041820C000000035
:1027B0000000182404081000300000003844444C85
:1027C00054544C40443800000030102828287C44E1
:1027D000EE00000000F8444478444444F80000004F
:1027E000003C4440404040443800000000F0484471
:1027F00044444448F000000000FC44507050404401
:10280000FC000000007E22283828202070000000F4
:10281000003C4440404E44443800000000EE444434
:102820007C444444EE000000007C10101010101096
:102830007C000000003C08080848484830000000C0
:1028400000EE444850704844E6000000007020202C
:10285000202024247C00000000EE6C6C545444447E
:10286000EE00000000EE64645454544CEC00000090
:102870000038444444444444380000000078242490
:10288000243820207000000000384444444444446C
:10289000381C000000F8444444784844E20000003A
:1028A00000344C40380404645800000000FE9210CC
:1028B000101010103800000000EE4444444444441A
:1028C0003800000000EE44442828281010000000C2
:1028D00000EE4444545454542800000000C64428D8
:1028E00010102844C600000000EE442828101010E4
:1028F00038000000007C4408101020447C000000D8
:1029000000382020202020202020380000402020D7
:1029100020101008080800000038080808080808F7
:1029200008083800001010284400000000000000D3
:102930000000000000000000000000FE0010080081
:10294000000000000000000000000038443C444447
:102950003E00000000C0405864444444F8000000B9
:102960000000003C4440404438000000000C0434A7
:102970004C4444443E00000000000038447C404089
:102980003C000000001C207C202020207C00000057
:10299000000000364C4444443C04380000C0405819
:1029A00064444444EE000000001000701010101049
:1029B0007C00000000100078080808080808700073
:1029C00000C0405C48705048DC000000003010102F
:1029D000101010107C000000000000E85454545403
:1029E000FE000000000000D864444444EE000000F3
:1029F000000000384444444438000000000000D87F
:102A0000644444447840E000000000364C444444B0
:102A10003C040E000000006C302020207C000000F0
:102A20000000003C44380444780000000000207C92
:102A3000202020221C000000000000CC4444444C14
:102A400036000000000000EE44442828100000007A
:102A5000000000EE4454545428000000000000CC54
:102A600048303048CC000000000000EE4424281814
:102A7000101078000000007C481020447C0000000A
:102A80000008101010102010101008000010101076
:102A9000101010101010000000201010101008105E
:102AA000101020000000000000245800000000006A
:102AB0000000000000000000000000000000000016
:102AC0000000001010101010101000001818000066
:102AD0000012362448000000000000000000000042
:102AE000000000242424FE484848FE4848480000CE
:102AF0000000103854545030181414545438101026
:102B000000000044A4A8A8A8541A2A2A2A440000B5
:102B100000000030484848506EA494888976000030
:102B200000606020C0000000000000000000000005
:102B30000002040808101010101010080804020009
:102B40000040201010080808080808101020400055
:102B5000000000001010D63838D610100000000019
:102B60000000000010101010FE10101010000000E7
:102B7000000000000000000000000000606020C0B5
:102B800000000000000000007F00000000000000C6
:102B90000000000000000000000000006060000075
:102BA0000000010202040408081010202040400028
:102BB00000000018244242424242424224180000CF
:102BC000000000107010101010101010107C000089
:102BD0000000003C4242420404081020427E0000F3
:102BE0000000003C42420418040202424438000043
:102BF000000000040C14242444447E04041E00003D
:102C00000000007E40404058640202424438000008
:102C10000000001C24404058644242422418000036
:102C20000000007E4444080810101010101000002E
:102C30000000003C4242422418244242423C000030
:102C40000000001824424242261A020224380000E2
:102C50000000000000001818000000001818000014
:102C60000000000000000010000000000010102014
:102C70000000000204081020402010080402000098
:102C8000000000000000FE000000FE000000000048
:102C9000000000402010080402040810204000003A
:102CA0000000003C424262020408080018180000BC
:102CB00000000038445AAAAAAAAAB4424438000024
:102CC0000000001010182828243C444242E700006D
:102CD000000000F8444444784442424244F8000072
:102CE0000000003E424280808080804244380000E4
:102CF000000000F8444242424242424244F800008E
:102D0000000000FC424848784848404242FC00002D
:102D1000000000FC424848784848404040E000003D
:102D20000000003C44448080808E8444443800008D
:102D3000000000E7424242427E42424242E7000037
:102D40000000007C1010101010101010107C0000FB
:102D50000000003E0808080808080808080888F06D
:102D6000000000EE444850705048484444EE0000D3
:102D7000000000E0404040404040404042FE000033
:102D8000000000EE6C6C6C6C5454545454D600002B
:102D9000000000C7626252524A4A4A4646E20000B8
:102DA000000000384482828282828282443800009D
:102DB000000000FC424242427C40404040E00000B3
:102DC00000000038448282828282B2CA4C380600F7
:102DD000000000FC4242427C4848444442E3000078
:102DE0000000003E4242402018040242427C0000A3
:102DF000000000FE9210101010101010103800008B
:102E0000000000E74242424242424242423C00004D
:102E1000000000E742424424242828181010000033
:102E2000000000D692929292AAAA6C4444440000F8
:102E3000000000E7422424181818242442E7000068
:102E4000000000EE44442828101010101038000034
:102E50000000007E840408081020204242FC00008C
:102E6000001E1010101010101010101010101E0066
:102E70000000404020201010100808040404020242
:102E800000780808080808080808080808087800F2
:102E9000001C2200000000000000000000000000F4
:102EA000000000000000000000000000000000FF23
:102EB00000606020C0000000000000000000000072
:102EC000000000000000003C421E2242423F000081
:102ED000000000C040404058644242426458000034
:102EE000000000000000001C22404040221C0000A6
:102EF000000000060202021E22424242261B00007F
:102F0000000000000000003C427E4040423C0000C7
:102F10000000000F1110107E10101010107C000027
:102F2000000000000000003E444438403C42423C67
:102F3000000000C04040405C6242424242E7000064
:102F4000000000303000007010101010107C0000E5
:102F50000000000C0C00001C040404040404447869
:102F6000000000C04040404E4850684844EE000019
:102F7000000000701010101010101010107C0000D5
:102F800000000000000000FE4949494949ED0000E9
:102F900000000000000000DC6242424242E7000004
:102FA000000000000000003C42424242423C00005F
:102FB00000000000000000D864424242447840E033
:102FC000000000000000001E22424242221E0207B2
:102FD00000000000000000EE3220202020F8000059
:102FE000000000000000003E42403C02427C000025
:102FF000000000000010107C10101010100C0000D9
:1030000000000000000000C642424242463B000071
:1030100000000000000000E74224242810100000F7
:1030200000000000000000D79292AAAA44440000C9
:10303000000000000000006E24181818247600001C
:1030400000000000000000E742242428181010E0CF
:10305000000000000000007E44081010227E0000E6
:103060000003040404040408040404040404030026
:1030700008080808080808080808080808080808D0
:1030800000601010101010081010101010106000C8
:10309000304C430000000000000000000000000071
:1030A0000000000000000000000000000000000020
:1030B0000000000000000000000000000000000010
:1030C00000000000000000000000070007000700EB
:1030D00007000700070007000200020000000000D0
:1030E00007000700000000000000000000000000D2
:1030F000000000001CE01CE01CE008400840084004
:1031000000000000000000000000000000000000BF
:1031100000000000000000000CC00CC00CC00CC07F
:103120000CC03FF03FF00CC00CC03FF03FF00CC0B3
:103130000CC00CC00CC00CC000000000000000005F
:103140000300030007E00FE0186018001F000FC025
:1031500000E0186018601FC01F8003000300030018
:10316000000000000000000000001C0022002200FF
:1031700022001C6001E00F803C0031C002200220D0
:10318000022001C00000000000000000000000005C
:1031900000000000000003E00FE00C000C0006003F
:1031A0000F301FF019E018C01FF007B0000000003A
:1031B0000000000000000000000000000380038009
:1031C0000380010001000100000000000000000079
:1031D00000000000000000000000000000000000EF
:1031E000000000C000C001800180018003000300D6
:1031F000030003000300030001800180018000C080
:1032000000C000000000000000000C000C000600E0
:103210000600060003000300030003000300030090
:103220000600060006000C000C0000000000000074
:1032300000000300030003001B601FE007800780FD
:103240000FC00CC0000000000000000000000000E3
:10325000000000000000000000000000000003006B
:103260000300030003003FF03FF0030003000300EE
:10327000030000000000000000000000000000004B
:10328000000000000000000000000000000000003E
:103290000000000000000380030003000600060099
:1032A000040000000000000000000000000000001A
:1032B0000000000000003FE03FE0000000000000D0
:1032C00000000000000000000000000000000000FE
:1032D00000000000000000000000000000000000EE
:1032E0000000000000000380038003800000000055
:1032F00000000000000000000060006000C000C08E
:1033000000C00180018003000300060006000C00DD
:103310000C000C0018001800000000000000000065
:1033200000000F801FC018C0306030603060306017
:1033300030603060306018C01FC00F800000000097
:103340000000000000000000000003001F001F003C
:103350000300030003000300030003000300030055
:103360001FE01FE00000000000000000000000005F
:1033700000000F801FC038E03060006000C0018096
:10338000030006000C0018003FE03FE000000000D2
:10339000000000000000000000000F803FC030E08F
:1033A000006000E007C007C000E00060006060E06F
:1033B0007FC03F800000000000000000000000000F
:1033C000000001C003C003C006C00CC00CC018C080
:1033D00030C03FE03FE000C003E003E00000000039
:1033E000000000000000000000001FC01FC0180007
:1033F00018001F801FC018E000600060006030E00F
:103400003FC01F800000000000000000000000001E
:10341000000003E00FE01E001800380037803FC0B6
:1034200038E03060306018E01FC007800000000006
:10343000000000000000000000003FE03FE03060BE
:10344000006000C000C000C0018001800180030056
:103450000300030000000000000000000000000066
:1034600000000F801FC038E0306038E01FC01FC070
:1034700038E03060306038E01FC00F80000000008E
:10348000000000000000000000000F001FC038C056
:103490003060306038E01FE00F6000E000C003C023
:1034A0003F803E000000000000000000000000001F
:1034B0000000000000000000000003800380038083
:1034C0000000000000000380038003800000000073
:1034D00000000000000000000000000000000000EC
:1034E000000001C001C001C0000000000000038016
:1034F00003000600060004000000000000000000B9
:10350000000000000000003000F003C007001C00B5
:1035100078001C00070003C000F00030000000002D
:10352000000000000000000000000000000000009B
:1035300000007FF07FF0000000007FF07FF00000CF
:10354000000000000000000000000000000000007B
:1035500000000000000030003C000F00038000E08D
:10356000007800E003800F003C0030000000000005
:103570000000000000000000000000000F801FC0DD
:1035800018601860006001C00380030000000000A4
:10359000070007000000000000000000000000001D
:1035A000000003800C8008401040104011C0124001
:1035B0001240124011C010000800084007800000AF
:1035C0000000000000000000000000001F801F80BD
:1035D000038006C006C00CC00C601FE01FE0303046
:1035E00078787878000000000000000000000000FB
:1035F000000000003F803FC01860186018E01FC046
:103600001FE01870183018303FF03FE00000000055
:1036100000000000000000000000000007B00FF0F4
:103620001C703830300030003000300038301C70F2
:103630000FE007C0000000000000000000000000D4
:10364000000000007F807FC030E0307030303030CC
:1036500030303030307030E07FC07F8000000000BC
:103660000000000000000000000000003FF03FF0FC
:103670001830183019801F801F80198018301830BA
:103680003FF03FF0000000000000000000000000DC
:10369000000000003FF03FF01830183019801F8004
:1036A0001F801980180018003F003F000000000034
:1036B00000000000000000000000000007B01FF044
:1036C000187030303000300031F831F830301830B8
:1036D0001FF007C000000000000000000000000014
:1036E000000000003CF03CF01860186018601FE01B
:1036F0001FE01860186018603CF03CF0000000000B
:103700000000000000000000000000001FE01FE0BB
:103710000300030003000300030003000300030091
:103720001FE01FE00000000000000000000000009B
:103730000000000003F803F8006000600060006013
:1037400030603060306030E03FC00F80000000002B
:103750000000000000000000000000003EF83EF8FD
:1037600018E019801B001F001D8018C018C01860C9
:103770003E783E380000000000000000000000001D
:10378000000000003F003F000C000C000C000C008B
:103790000C000C300C300C303FF03FF0000000000B
:1037A0000000000000000000000000007878787839
:1037B00038703CF034B037B037B03330333030305D
:1037C0007CF87CF800000000000000000000000011
:1037D0000000000039F03DF01C601E601E601B60A0
:1037E0001B6019E019E018E03EE03E6000000000B8
:1037F00000000000000000000000000007800FC073
:103800001CE03870303030303030303038701CE0F0
:103810000FC0078000000000000000000000000052
:10382000000000003FC03FE01870183018301870DA
:103830001FE01FC0180018003F003F0000000000FC
:1038400000000000000000000000000007800FC022
:103850001CE03870303030303030303038701CE0A0
:103860000FC0078007B00FF00CE000000000000060
:10387000000000003FC03FE01870183018701FE0D3
:103880001FC018E0186018703E383E180000000095
:103890000000000000000000000000000FB01FF05A
:1038A0003870303038001F8007E0007030303870DA
:1038B0003FE037C0000000000000000000000000F2
:1038C000000000003FF03FF033303330333003006E
:1038D00003000300030003000FC00FC0000000003E
:1038E0000000000000000000000000003CF03CF080
:1038F00018601860186018601860186018601CE084
:103900000FC0078000000000000000000000000061
:103910000000000078F078F03060306018C018C007
:103920000D800D800D8007000700070000000000DB
:103930000000000000000000000000007C7C7C7C97
:10394000301833983398339836D816D01C701C70C2
:103950001C70183000000000000000000000000093
:103960000000000078F078F0306018C00D8007008B
:1039700007000D8018C0306078F078F0000000007B
:103980000000000000000000000000003CF03CF0DF
:1039900018600CC0078007800300030003000300C9
:1039A0000FC00FC000000000000000000000000079
:1039B000000000001FE01FE0186018C00180030035
:1039C000030006000C6018601FE01FE0000000000C
:1039D0000000000000000000000003C003C003005E
:1039E00003000300030003000300030003000300BF
:1039F00003000300030003C003C000000000000038
:103A0000180018000C000C000C0006000600030053
:103A100003000180018000C000C000C000600060A1
:103A2000000000000000000000000F000F00030075
:103A3000030003000300030003000300030003006E
:103A40000300030003000F000F000000000000004F
:103A50000000020007000D8018C030602020000028
:103A60000000000000000000000000000000000056
:103A70000000000000000000000000000000000046
:103A80000000000000000000000000000000000036
:103A9000000000000000000000000000FFFCFFFC30
:103AA000000004000300008000000000000000008F
:103AB0000000000000000000000000000000000006
:103AC00000000000000000000000000000000000F6
:103AD00000000FC01FE000600FE01FE0386030E022
:103AE0003FF01F7000000000000000000000000018
:103AF0000000700070003000300037803FE0386018
:103B000030303030303038607FE0778000000000A7
:103B100000000000000000000000000000000000A5
:103B2000000007B01FF0183030303000300038305F
:103B30001FF00FC0000000000000000000000000A7
:103B40000000007000700030003007B01FF01870E7
:103B500030303030303038701FF807B800000000C7
:103B60000000000000000000000000000000000055
:103B7000000007801FE018603FF03FF03000183071
:103B80001FF007C00000000000000000000000005F
:103B9000000003F007F0060006001FE01FE006002B
:103BA00006000600060006001FE01FE000000000FF
:103BB0000000000000000000000000000000000005
:103BC000000007B81FF818703030303030301870EF
:103BD0001FF007B0003000700FE00FC000000000C1
:103BE000000038003800180018001BC01FE01C60DF
:103BF00018601860186018603CF03CF0000000008D
:103C000000000000000000000000030003000000AE
:103C100000001F001F000300030003000300030057
:103C20001FE01FE000000000000000000000000096
:103C3000000003000300000000001FC01FC000C000
:103C400000C000C000C000C000C000C000C001C073
:103C50003F803F00000000000000380038001800DE
:103C600018001BE01BE01B001E001E001B0019803B
:103C700039F039F0000000000000000000000000F2
:103C800000001F001F0003000300030003000300E7
:103C900003000300030003001FE01FE0000000001A
:103CA0000000000000000000000000000000000014
:103CB00000007EE07FF03330333033303330333048
:103CC0007BB87BB80000000000000000000000008E
:103CD000000000000000000000003BC03FE01C604E
:103CE00018601860186018603CF03CF0000000009C
:103CF00000000000000000000000000000000000C4
:103D0000000007801FE0186030303030303018601D
:103D10001FE007800000000000000000000000001D
:103D20000000000000000000000077807FE03860A5
:103D300030303030303038603FE037803000300095
:103D40007C007C000000000000000000000000007B
:103D5000000007B81FF8187030303030303018705D
:103D60001FF007B00030003000F800F8000000003D
:103D7000000000000000000000003CE03DF00F30BB
:103D80000E000C000C000C003FC03FC00000000003
:103D90000000000000000000000000000000000023
:103DA000000007E01FE018601E000FC001E018606F
:103DB0001FE01F8000000000000000000000000065
:103DC000000000000C000C000C003FE03FE00C0085
:103DD0000C000C000C000C300FF007C000000000BD
:103DE00000000000000000000000000000000000D3
:103DF000000038E038E0186018601860186018E0BB
:103E00001FF00F7000000000000000000000000024
:103E10000000000000000000000078F078F0306042
:103E200018C018C00D800D800700070000000000BA
:103E30000000000000000000000000000000000082
:103E4000000078F078F03260326037E01DC01DC0AD
:103E500018C018C0000000000000000000000000B2
:103E6000000000000000000000003CF03CF00CC02E
:103E70000780030007800CC03CF03CF0000000000D
:103E80000000000000000000000000000000000032
:103E9000000078F078F0306018C018C00D800F80F6
:103EA0000700060006000C007F007F0000000000F5
:103EB000000000000000000000001FE01FE018C02C
:103EC0000180030006000C601FE01FE000000000FE
:103ED0000000000000000000000001C003C003005B
:103EE000030003000300030007000E0007000300A7
:103EF00003000300030003C001C000000000000035
:103F0000000003000300030003000300030003009C
:103F10000300030003000300030003000300030089
:103F2000030000000000000000001C001E0006004E
:103F300006000600060006000700038007000600D2
:103F40000600060006001E001C0000000000000025
:103F50000000000000000000000000000E003F30E4
:103F600033F001E00000000000000000000000004D
:103F70000000000000000000000000000000000041
:103F80000000000000000000000000000000000031
:103F90000000000000000000000000000000000021
:103FA0000000000000000000000000000000000011
:103FB0000000000000000000000000000000000001
:103FC0000000000000000380000380000380000365
:103FD00080000380000380000380000380000380D2
:103FE000000100000100000000000000000380004C
:103FF000038000000000000000000000000000003E
:1040000000000000000000000000000000000000B0
:10401000000E70000E70000E7000042000042000DE
:104020000420000420000000000000000000000048
:104030000000000000000000000000000000000080
:104040000000000000000000000000000000000070
:104050000000000000000660000660000660000628
:1040600060000660003FF8003FF8000660000CC0EA
:10407000003FF8003FF8000CC0000CC0000CC0006E
:104080000CC0000CC0000000000000000000000098
:10409000000000000000000000000001800001801E
:1040A0000007B0000FF0001870001870001C00002E
:1040B0000F800007E00000F0001830001C30001CEA
:1040C00070001FE0001BC000018000018000018023
:1040D000000180000000000000000000000000005F
:1040E0000000000000000780000FC0001CE0001866
:1040F00060001860001CE0000FF80007E0001FF0EF
:104100000007380006180006180007380003F00002
:1041100001E00000000000000000000000000000BE
:10412000000000000000000000000000000000008F
:104130000000000003F00007F0000C60000C00001D
:104140000C00000600000700000F9C001DFC00187A
:10415000F0001870000FFC0007DC000000000000F9
:10416000000000000000000000000000000000004F
:104170000000000000000000000380000380000336
:1041800080000100000100000100000100000000AB
:10419000000000000000000000000000000000001F
:1041A000000000000000000000000000000000000F
:1041B00000000000000000000000000000000018E7
:1041C0000000380000700000F00000E00000E00097
:1041D00001C00001C00001C00001C00001C0000119
:1041E000C00000E00000E000007000007000003837
:1041F00000001800000000000000000000000000A7
:104200000000000000001800001C00000E00000E5E
:104210000000070000070000038000038000038007
:1042200000038000038000038000070000070000F7
:104230000F00000E00001C0000180000000000002D
:1042400000000000000000000000000000000180ED
:10425000000180000180001DB8001FF80007E00089
:1042600003C00003C00006600006600000000000FC
:10427000000000000000000000000000000000003E
:10428000000000000000000000000000000000002E
:10429000000000000000000000000000018000019C
:1042A00080000180000180000180003FFC003FFC95
:1042B0000001800001800001800001800001800079
:1042C00000000000000000000000000000000000EE
:1042D00000000000000000000000000000000000DE
:1042E00000000000000000000000000000000000CE
:1042F00000000000000000000000000000000000BE
:10430000000000E00000C00001C00001800001804A
:104310000003000003000000000000000000000097
:10432000000000000000000000000000000000008D
:1043300000000000000000000000001FF8001FF84F
:10434000000000000000000000000000000000006D
:10435000000000000000000000000000000000005D
:10436000000000000000000000000000000000004D
:10437000000000000000000000000000000000003D
:10438000000000000000000000000000000000002D
:10439000000003C00003C00003C0000000000000D4
:1043A000000000000000000000000000000000000D
:1043B00000180000180000380000300000700000F5
:1043C000600000600000C00000C0000180000180AB
:1043D000000300000300000600000600000E0000BD
:1043E0000C00001C00001800001800000000000075
:1043F000000000000000000000000000000003C0FA
:104400000007E0000C30000C3000181800181800ED
:104410001818001818001818001818001818000CA0
:1044200030000C300007E00003C000000000000076
:10443000000000000000000000000000000000007C
:104440000000000000000080000780001F80001DA9
:104450008000018000018000018000018000018057
:10446000000180000180000180000180001FF80031
:104470001FF8000000000000000000000000000025
:10448000000000000000000000000000000007C065
:10449000001FF000383000301800301800001800FD
:1044A00000300000600001C0000380000600000C26
:1044B00000001800003FF8003FF800000000000076
:1044C00000000000000000000000000000000000EC
:1044D00000000000000003C0000FE0000C700000AE
:1044E000300000300000600003C00003E0000070F6
:1044F000000018000018000018001838001FF00015
:104500000FC00000000000000000000000000000DC
:10451000000000000000000000000000000000E0BB
:104520000001E00001E0000360000660000660009A
:104530000C60000C60001860003060003FF8003F25
:10454000F80000600003F80003F80000000000001D
:10455000000000000000000000000000000000005B
:104560000000000000001FF0001FF00018000018FD
:1045700000001800001BC0001FF0001C30000018D5
:10458000000018000018000018003030003FF00054
:104590000FC000000000000000000000000000004C
:1045A000000000000000000000000000000000F813
:1045B0000003F8000700000E00000C0000180000C7
:1045C0001BC0001FF0001C3000181800181800183D
:1045D00018000C38000FF00003E00000000000009D
:1045E00000000000000000000000000000000000CB
:1045F0000000000000001FF8001FF8001818001845
:1046000038000030000030000070000060000060E2
:104610000000E00000C00000C00001C000018000F8
:104620000180000000000000000000000000000009
:10463000000000000000000000000000000007E093
:10464000000FF0001C38001818001818000C30007B
:1046500007E00007E0000C300018180018180018D8
:1046600018001C38000FF00007E0000000000000F8
:10467000000000000000000000000000000000003A
:1046800000000000000007C0000FF0001C30001800
:1046900018001818001818000C38000FF80003D87C
:1046A0000000180000300000700000E0001FC00093
:1046B0001F000000000000000000000000000000DB
:1046C00000000000000000000000000000000000EA
:1046D0000000000000000000000003C00003C00054
:1046E00003C0000000000000000000000000000007
:1046F000000003C00003C00003C000000000000071
:1047000000000000000000000000000000000000A9
:104710000000000000000000000000000000000099
:10472000000000F00000F00000F0000000000000B9
:104730000000000000000000E00001C00001800057
:1047400001800003000002000000000000000000E3
:104750000000000000000000000000000000000059
:1047600000000000001C00003C0000F00003C0003E
:104770000F00003C0000F000003C00000F000003B0
:10478000C00000F000003C00001C00000000000021
:104790000000000000000000000000000000000019
:1047A0000000000000000000000000000000000009
:1047B00000000000007FFC007FFC00000000000003
:1047C000007FFC007FFC00000000000000000000F3
:1047D00000000000000000000000000000000000D9
:1047E00000000000000000000000000000000000C9
:1047F000000000007000007800001E00000780002C
:1048000001E000007800001E0000780001E00007D1
:1048100080001E0000780000700000000000000012
:104820000000000000000000000000000000000088
:1048300000000000000000000007C0000FE00018AA
:10484000700018300018300000700000E00003C055
:1048500000038000030000000000000000070000CB
:104860000700000000000000000000000000000041
:10487000000000000000000000000000000003E055
:104880000007F0000E38000C180018780018F80027
:1048900019D80019980019980019980018F80018EC
:1048A00078001800000C00000E180007F80003E064
:1048B00000000000000000000000000000000000F8
:1048C0000000000000000000001F80001FC0000169
:1048D000C0000360000360000630000630000C30AA
:1048E000000FF8001FF800180C00300C00FC7F00CF
:1048F000FC7F00000000000000000000000000003D
:1049000000000000000000000000000000000000A7
:10491000007FE0007FF00018380018180018180019
:104920001838001FF0001FF800181C00180C0018A1
:104930000C00180C007FF8007FF000000000000061
:104940000000000000000000000000000000000067
:1049500000000000000000000003EC000FFC001C41
:104960001C00180C00300C0030000030000030003B
:1049700000300000300000180C001C1C000FF80074
:1049800003F0000000000000000000000000000034
:104990000000000000000000000000000000000017
:1049A000007FC0007FF000183800181800180C00B5
:1049B000180C00180C00180C00180C00180C00182B
:1049C00018001838007FF0007FE0000000000000B1
:1049D00000000000000000000000000000000000D7
:1049E0000000000000000000007FF8007FF80018C1
:1049F00018001818001998001980001F80001F80E7
:104A0000001980001998001818001818007FF80085
:104A10007FF800000000000000000000000000001F
:104A20000000000000000000000000000000000086
:104A3000003FFC003FFC000C0C000C0C000CCC00F8
:104A40000CC0000FC0000FC0000CC0000CC0000C58
:104A500000000C00003FC0003FC00000000000004C
:104A60000000000000000000000000000000000046
:104A700000000000000000000003EC000FFC001C20
:104A80001C00180C00300C0030000030000030FE1C
:104A90000030FE00300C00380C001C1C000FFC0025
:104AA00003F0000000000000000000000000000013
:104AB00000000000000000000000000000000000F6
:104AC000007E7E007E7E001818001818001818005E
:104AD0001818001FF8001FF8001818001818001800
:104AE00018001818007E7E007E7E00000000000086
:104AF00000000000000000000000000000000000B6
:104B00000000000000000000001FF8001FF8000176
:104B10008000018000018000018000018000018090
:104B2000000180000180000180000180001FF8006A
:104B30001FF800000000000000000000000000005E
:104B40000000000000000000000000000000000065
:104B50000007FE0007FE00003000003000003000BB
:104B60000030000030003030003030003030003095
:104B700030003060003FE0000F80000000000000C7
:104B80000000000000000000000000000000000025
:104B90000000000000000000007F3E007F3E001883
:104BA000300018600018C0001980001B80001FC072
:104BB000001CE0001870001830001838007F1F003B
:104BC0007F1F000000000000000000000000000047
:104BD00000000000000000000000000000000000D5
:104BE000007F80007F80000C00000C00000C0000A3
:104BF0000C00000C00000C00000C0C000C0C000C55
:104C00000C000C0C007FFC007FFC0000000000008A
:104C10000000000000000000000000000000000094
:104C2000000000000000000000F00F00F81F003836
:104C30001C003C3C003C3C00366C00366C0033CC25
:104C40000033CC00318C00300C00300C00FE7F00B3
:104C5000FE7F0000000000000000000000000000D7
:104C60000000000000000000000000000000000044
:104C70000078FE0078FE001C18001E18001F1800A7
:104C80001B18001B980019D80018D80018F8001835
:104C900078001838007F18007F180000000000001E
:104CA0000000000000000000000000000000000004
:104CB00000000000000000000003C0000FF0001C16
:104CC0003800181800381C00300C00300C00300C74
:104CD00000300C00381C001818001C38000FF000C1
:104CE00003C0000000000000000000000000000001
:104CF00000000000000000000000000000000000B4
:104D0000003FF0003FF8000C1C000C0C000C0C00E5
:104D10000C0C000C18000FF8000FE0000C00000C49
:104D200000000C00003FC0003FC000000000000079
:104D30000000000000000000000000000000000073
:104D400000000000000000000003C0000FF0001C85
:104D50003800181800381C00300C00300C00300CE3
:104D600000300C00381C001818001C38000FF00030
:104D700007C00007CC000FFC000C3800000000004A
:104D80000000000000000000000000000000000023
:104D9000007FE0007FF00018380018180018180095
:104DA0001838001FF0001FC00018E000187000182D
:104DB00030001838007F1E007F0E00000000000049
:104DC00000000000000000000000000000000000E3
:104DD00000000000000000000007D8000FF8001CD1
:104DE00038001818001818001E00000FC00003F04B
:104DF000000078001818001818001C38001FF00078
:104E00001BE00000000000000000000000000000A7
:104E10000000000000000000000000000000000092
:104E2000003FFC003FFC00318C00318C00318C00D5
:104E3000318C0001800001800001800001800001B0
:104E400080000180000FF0000FF000000000000063
:104E50000000000000000000000000000000000052
:104E60000000000000000000007E7E007E7E001832
:104E7000180018180018180018180018180018182A
:104E8000001818001818001818000C30000FF00057
:104E900003C000000000000000000000000000004F
:104EA0000000000000000000000000000000000002
:104EB000007F7F007F7F00180C000C18000C18008A
:104EC0000C18000630000630000360000360000389
:104ED000600001C00001C000008000000000000070
:104EE00000000000000000000000000000000000C2
:104EF000000000000000000000FE3F80FE3F803008
:104F0000060030060030860019CC0019CC001B6C5E
:104F1000001B6C001E7C000E38000E38000C1800C0
:104F20000C1800000000000000000000000000005D
:104F30000000000000000000000000000000000071
:104F4000007E7E007E7E001818000C300006600097
:104F500003C00001800001800003C0000660000C57
:104F600030001818007E7E007E7E000000000000E9
:104F70000000000000000000000000000000000031
:104F80000000000000000000007C7E007C7E001815
:104F900018000C300006600006600003C0000180AD
:104FA000000180000180000180000180000FF000FE
:104FB0000FF00000000000000000000000000000F2
:104FC00000000000000000000000000000000000E1
:104FD000001FF8001FF800181800183000186000B3
:104FE00018C0000180000300000618000C1800180B
:104FF00018003018003FF8003FF8000000000000E3
:1050000000000000000000000000000000000000A0
:1050100000000000000001F00001F000018000012C
:10502000800001800001800001800001800001807B
:1050300000018000018000018000018000018000EB
:1050400001800001800001F00001F000000000007C
:1050500000000000000000001800001800001C0004
:10506000000C00000E000006000006000003000017
:1050700003000001800001800000C00000C00000AB
:105080006000006000007000003000003800001870
:1050900000001800000000000000000000000000F8
:1050A0000000000000000F80000F80000180000160
:1050B00080000180000180000180000180000180EB
:1050C000000180000180000180000180000180005B
:1050D0000180000180000F80000F800000000000B0
:1050E000000000000000000000000000800001C07F
:1050F0000003E0000770000630000C1800180C00D8
:10510000100400000000000000000000000000008B
:10511000000000000000000000000000000000008F
:10512000000000000000000000000000000000007F
:10513000000000000000000000000000000000006F
:10514000000000000000000000000000000000005F
:10515000000000000000000000000000000000004F
:10516000000000000000000000000000000000003F
:105170000000FFFF00FFFF000000000300000380AD
:105180000000E000006000000000000000000000DF
:10519000000000000000000000000000000000000F
:1051A00000000000000000000000000000000000FF
:1051B00000000000000000000000000000000000EF
:1051C00000000000000000000000000000000000DF
:1051D00000000FC0001FE00000300000300007F0AA
:1051E000001FF0003830003030003070001FFC002D
:1051F0000FBC0000000000000000000000000000E4
:105200000000000000000000000000000000780026
:10521000007800001800001800001BE0001FF800D4
:105220001C1800180C00180C00180C00180C0018A2
:105230000C001C18007FF8007BE00000000000005C
:10524000000000000000000000000000000000005E
:10525000000000000000000000000000000000004E
:10526000000003EC000FFC001C1C00380C00300C8C
:1052700000300000300000380C001C1C000FF8004B
:1052800003F000000000000000000000000000002B
:105290000000000000000000000000000000007896
:1052A0000000780000180000180007D8001FF80060
:1052B000183800301800301800301800301800304E
:1052C00018001838001FFE0007DE00000000000074
:1052D00000000000000000000000000000000000CE
:1052E00000000000000000000000000000000000BE
:1052F000000007E0001FF800181800300C003FFC09
:10530000003FFC00300000300000180C001FFC00C3
:1053100007F0000000000000000000000000000096
:10532000000000000000000000000000000001FC80
:105330000003FC000600000600003FF8003FF800F4
:105340000600000600000600000600000600000639
:1053500000000600003FF0003FF0000000000000E9
:10536000000000000000000000000000000000003D
:10537000000000000000000000000000000000002D
:10538000000007DE001FFE0018380030180030183B
:10539000003018003018003018001838001FF800CE
:1053A00007D8000018000018000038000FF0000FA8
:1053B000C0000000000000000000000000007800B5
:1053C000007800001800001800001BE0001FF0002B
:1053D0001C380018180018180018180018180018A1
:1053E00018001818007E7E007E7E0000000000007D
:1053F00000000000000000000000000000000000AD
:10540000000000000000018000018000000000009A
:1054100000001F80001F80000180000180000180CB
:10542000000180000180000180000180003FFC003D
:105430003FFC000000000000000000000000000031
:10544000000000000000000000000000000000C09C
:105450000000C0000000000000001FF0001FF0006E
:10546000003000003000003000003000003000004C
:10547000300000300000300000300000300000300C
:10548000000070001FE0001F80000000000000000E
:105490000000000000003C00003C00000C00000C7C
:1054A00000000CF8000CF8000CC0000D80000F800C
:1054B000000F00000F80000DC0000CE0003C7C00DD
:1054C0003C7C000000000000000000000000000024
:1054D00000000000000000000000000000001F802D
:1054E000001F800001800001800001800001800019
:1054F0000180000180000180000180000180000126
:1055000080000180003FFC003FFC00000000000024
:10551000000000000000000000000000000000008B
:10552000000000000000000000000000000000007B
:105530000000F77800FFFC0039CC00318C00318C82
:1055400000318C00318C00318C00318C00FDEF007B
:10555000FDEF00000000000000000000000000005F
:10556000000000000000000000000000000000003B
:10557000000000000000000000007BE0007FF00061
:105580001C380018180018180018180018180018EF
:1055900018001818007E7E007E7E000000000000CB
:1055A00000000000000000000000000000000000FB
:1055B00000000000000000000000000000000000EB
:1055C000000003C0000FF0001C3800381C00300C35
:1055D00000300C00300C00381C001C38000FF000AC
:1055E00003C00000000000000000000000000000F8
:1055F00000000000000000000000000000000000AB
:10560000000000000000000000007BE0007FF800C8
:105610001C1800180C00180C00180C00180C0018AE
:105620000C001C18001FF8001BE0001800001800F8
:10563000001800007F00007F000000000000000054
:10564000000000000000000000000000000000005A
:10565000000007DE001FFE00183800301800301868
:10566000003018003018003018001838001FF800FB
:1056700007D80000180000180000180000FE000005
:10568000FE0000000000000000000000000000001C
:10569000000000000000000000003E78003EFC001A
:1056A00007CC000700000600000600000600000608
:1056B00000000600003FF0003FF000000000000086
:1056C00000000000000000000000000000000000DA
:1056D00000000000000000000000000000000000CA
:1056E000000007F8000FF8001818001818001F80B5
:1056F000000FF00000F8001818001838001FF00024
:105700001FE000000000000000000000000000009A
:1057100000000000000000000000000000000C007D
:10572000000C00000C00000C00003FF0003FF000F7
:105730000C00000C00000C00000C00000C00000C21
:1057400000000C1C0007FC0003F00000000000003B
:105750000000000000000000000000000000000049
:105760000000000000000000000000000000000039
:1057700000007878007878001818001818001818B9
:10578000001818001818001818001838000FFE002C
:1057900007DE000000000000000000000000000024
:1057A00000000000000000000000000000000000F9
:1057B000000000000000000000007C3E007C3E0075
:1057C0001818001818000C30000C30000660000695
:1057D000600007E00003C00003C0000000000000FC
:1057E00000000000000000000000000000000000B9
:1057F00000000000000000000000000000000000A9
:105800000000783C00783C00311800339800339851
:10581000001AB0001EF0001EF0001C60000C6000BA
:105820000C6000000000000000000000000000000C
:105830000000000000000000000000000000000068
:10584000000000000000000000003E7C003E7C00E4
:105850000C300006600003C00001800003C0000699
:1058600060000C30003E7C003E7C00000000000028
:105870000000000000000000000000000000000028
:105880000000000000000000000000000000000018
:1058900000007E1F007E1F00180C000C18000C1862
:1058A0000006300006300003600003E00001C00085
:1058B00000C0000180000180000300003FC0003FE5
:1058C000C000000000000000000000000000000018
:1058D000000000000000000000001FF8001FF8009A
:1058E00018300018600000C00001800003000006AE
:1058F00018000C18001FF8001FF80000000000003E
:105900000000000000000000000000000000000097
:1059100000000000000000E00001E0000180000144
:105920008000018000018000018000018000038070
:10593000000700000380000180000180000180005A
:1059400001800001800001E00000E0000000000094
:1059500000000000000000000000000000000180C6
:1059600000018000018000018000018000018000B2
:1059700001800001800001800001800001800001A1
:105980008000018000018000018000018000018012
:105990000001800000000000000000000000000086
:1059A00000000000000007000007800001800001E7
:1059B000800001800001800001800001800001C0A2
:1059C0000000E00001C000018000018000018000B3
:1059D0000180000180000780000700000000000037
:1059E00000000000000000000000000000000000B7
:1059F00000000000000000000000000000000000A7
:105A00000E00001F18003BB80031F00000E000005D
:105A10000000000000000000000000000000000086
:105A20000000000000000000000000000000000076
:105A3000B5B1000100210811080910092001007FFB
:105A4000F80008000800083FF80008000800087F78
:105A5000F800080000000000000000000000000046
:105A60000000000000000000000000000000000036
:105A70000000000000000000000000000000000026
:105A80000000000000000000000000000000000016
:105A90000000000000000000000000000000000006
:105AA00000000000000000000000000000000000F6
:105AB000000000C7B000101008100820FFFE000012
:105AC0003E08224822483E48224822483E482208B2
:105AD00022082A2824100000000000000000000016
