:020000040800F2
:10000000E8060020CD010008A5060008B504000898
:10001000A10600088702000825080008000000006B
:10002000000000000000000000000000D5060008ED
:10003000B102000800000000A7060008C107000880
:10004000E7010008E7010008E7010008E7010008F0
:10005000E7010008E7010008E7010008E7010008E0
:10006000E7010008E7010008E7010008E7010008D0
:10007000E7010008E7010008E7010008E7010008C0
:10008000E7010008E7010008E7010008E7010008B0
:10009000E7010008E7010008E7010008E7010008A0
:1000A000E7010008E7010008E7010008E701000890
:1000B000E7010008E7010008E7010008E701000880
:1000C000E7010008E7010008E7010008E701000870
:1000D000E7010008E7010008E7010008E701000860
:1000E000E7010008E7010008E7010008E701000850
:1000F000E7010008E7010008E7010008E701000840
:10010000E7010008E7010008E7010008E70100082F
:10011000E7010008E7010008E7010008E70100081F
:10012000E7010008E7010008E7010008E70100080F
:1001300000F002F800F03AF80AA090E8000C8244BF
:100140008344AAF10107DA4501D100F02FF8AFF29C
:10015000090EBAE80F0013F0010F18BFFB1A43F0A5
:10016000010318477009000090090000103A24BFED
:1001700078C878C1FAD8520724BF30C830C144BF0C
:1001800004680C607047000000230024002500264E
:10019000103A28BF78C1FBD8520728BF30C148BFEA
:1001A0000B6070471FB51FBD10B510BD00F031F8D2
:1001B0001146FFF7F7FF00F05DFC00F04FF803B4C5
:1001C000FFF7F2FF03BC00F057F800000948804732
:1001D00009480047FEE7FEE7FEE7FEE7FEE7FEE729
:1001E000FEE7FEE7FEE7FEE704480549054A064B41
:1001F00070470000C507000831010008E800002032
:10020000E8060020E8020020E8020020704770475E
:100210007047754600F02CF8AE4605006946534617
:1002200020F00700854618B020B5FFF7DDFFBDE8D8
:1002300020404FF000064FF000074FF000084FF04D
:10024000000B21F00701AC46ACE8C009ACE8C009DE
:10025000ACE8C009ACE8C0098D46704710B504464B
:10026000AFF300802046BDE81040FFF7A8BF0000B4
:10027000004870478400002001491820ABBEFEE70B
:1002800026000200704700BFFEE7000010B54020C6
:1002900000F0CAFA002405E00449085D00F0DCFA29
:1002A000601CC4B2402CF7DB10BD00000000002031
:1002B00070472DE9F041024600250026002000236A
:1002C0000024002791F803C00CF00F0591F803C03B
:1002D0000CF0100CBCF1000F03D091F802C04CEAF6
:1002E000050591F800C0BCF1000F31D01468002062
:1002F0002BE04FF0010C0CFA00F3B1F800C00CEA4F
:1003000003069E4220D183004FF00F0C0CFA03F736
:10031000BC4305FA03FC4CEA040491F803C0BCF1A9
:10032000280F06D14FF0010C0CFA00FCC2F814C0E3
:100330000AE091F803C0BCF1480F05D14FF0010C61
:100340000CFA00FCC2F810C0401C0828D1D314607D
:10035000B1F800C0BCF1FF0F34DD546800202EE07E
:1003600000F1080C4FF0010808FA0CF3B1F800C0D6
:100370000CEA03069E4221D183004FF00F0C0CFAC9
:1003800003F7BC4305FA03FC4CEA040491F803C0EC
:10039000BCF1280F05D100F1080C08FA0CF8C2F8DE
:1003A000148091F803C0BCF1480F07D100F1080C8C
:1003B0004FF0010808FA0CF8C2F81080401C082819
:1003C000CED35460BDE8F08108B50121502000F083
:1003D00071F97020ADF8000002208DF802001C4871
:1003E000007818B948208DF8030002E010208DF83D
:1003F000030069461748FFF75CFF4FF40050ADF863
:10040000000002208DF802001148007818B9482039
:100410008DF8030002E010208DF8030069460E48B5
:10042000FFF747FF0F20ADF8000002208DF8020013
:100430000748007818B910208DF8030002E0482022
:100440008DF8030069460348FFF733FF08BD00003D
:1004500081000020001801400010014008B5012172
:10046000202000F027F9F720ADF8000003208DF8D8
:10047000020010208DF8030069460248FFF719FFBB
:1004800008BD0000001401400146886880B2704732
:100490000246002093680B400BB1012000E00020D1
:1004A000704741617047016170470AB1016100E026
:1004B0004161704700BFFEE710B500F04DF84128DC
:1004C00028D012DC212823D008DC11281ED01228C5
:1004D00024D014282AD0182838D12FE022281FD061
:1004E000242825D0282831D12AE0812814D006DC00
:1004F000422817D044281DD0482827D122E082283E
:1005000012D0842818D0882820D11DE001241FE0B3
:1005100002241DE003241BE00C2419E0042417E04E
:10052000052415E0062413E00D2411E007240FE054
:1005300008240DE009240BE00E2409E00A2407E05A
:10054000002405E00B2403E00F2401E0FF2400BF9A
:1005500000BF204610BD00002DE9F0414FF000081B
:10056000002600270025002400220F213A48FFF72B
:100570009CFF012270213848FFF797FF01225103A9
:100580003648FFF792FF022000F04CFA3248FFF79E
:100590007BFF00F070044FF400513048FFF778FF04
:1005A0000546702C01D1012D51D0142000F03AFAEB
:1005B0002948FFF769FF00F070044FF40051274805
:1005C000FFF766FF0546702C01D1012D3CD035B1F7
:1005D00044F08000C043C6B206F0F00600E080267A
:1005E00001201F490870FFF7EFFE01220F211A4872
:1005F000FFF75BFF002270211748FFF756FF00222C
:100600004FF400511548FFF750FF022000F00AFA9E
:100610001148FFF739FF044604F00F00C043C7B28A
:1006200007F00F0703E00C48FFF72EFF044604F025
:100630000F000F28F7D1002009490870FFF7C4FE0A
:10064000F01900F0FF0804E04FF0FF0801E04FF060
:10065000FF084046BDE8F08100180140001001404D
:100660008100002010B5322000F0DCF9FFF7F6FE23
:10067000052404E0282000F0D7F8601EC4B2002C46
:10068000F8DC012000F0D0F8062000F0CDF80F20B3
:1006900000F0CAF80C2000F0C7F8FFF7F7FD10BD16
:1006A00000BFFEE77047704710B5FFF7DBFFFFF7AD
:1006B0008BFE10BD29B1064A92690243044B9A6130
:1006C00004E0034A92698243014B9A61704700003B
:1006D00000100240704710B500F002F810BD000095
:1006E0000CB50020019000903348006840F4803041
:1006F0003149086000BF3048006800F400300090C5
:100700000198401C0190009818B90198B0F5A06FAD
:10071000F1D12948006800F4003010B101200090A8
:1007200001E0002000900098012843D12348006890
:1007300040F01000214908600846006820F00300DE
:1007400008600846006840F0020008601A484068E7
:10075000194948600846406848600846406840F4C7
:10076000806048600846406820F47C104860084675
:10077000406840F4E81048600846006840F0807027
:10078000086000BF0C48006800F000700028F9D035
:100790000948406820F0030007494860084640685F
:1007A00040F00200486000BF0348406800F00C00C1
:1007B0000828F9D10CBD00000010024000200240C2
:1007C0007047000010B51348006840F0010011495F
:1007D000086008464068104908400E4948600846CD
:1007E00000680E4908400B4908600846006820F47C
:1007F000802008600846406820F4FE0048604FF4FE
:100800001F008860FFF767FF4FF000600449086031
:1008100010BD0000001002400000FFF8FFFFF6FED0
:1008200008ED00E000BFFEE710B50446074804707D
:100830000748047001210748FFF733FE02210548ED
:10084000FFF72FFE00F07AF810BD00007F000020B7
:10085000800000200014014010B5044607480470D1
:100860000748047001210748FFF71DFE02210548D3
:10087000FFF717FE00F062F810BD00007F000020B7
:1008800080000020001401402DE9F84307460E4681
:10089000144629A0006800904FF00008012F05D1F0
:1008A00006F17F01C8B2FFF7BFFF04E006F1BF0108
:1008B000C8B2FFF7B9FFC4B34FF47A7094FBF0F1FC
:1008C00000FB1140642190FBF1F03030C0B28DF894
:1008D0000000642094FBF0F100FB11400A2190FB22
:1008E000F1F03030C0B28DF801000A2094FBF0F135
:1008F00000FB11403030C0B28DF80200002511E03D
:100900001DF80500302804D0B8F1000F01D14FF0D8
:100910000108B8F1010F03D11DF80500FFF79CFF96
:10092000681CC5B2032DEBDB03E0FFE73020FFF7C7
:1009300093FFBDE8F88300002020202010B529484F
:1009400000684FF60F710840264908602648007875
:1009500000F0F00024490870224800680978084334
:1009600020490860012000F069F804211D480C3876
:10097000FFF799FD012000F061F8042119480C38B7
:10098000FFF78FFD012000F059F8164800684FF678
:100990000F710840134908601448007800F00F00F8
:1009A00012490870084600780007000E08700D48CC
:1009B0000068097808430B490860012000F03EF800
:1009C000042108480C38FFF76EFD012000F036F8CE
:1009D000042104480C38FFF764FD052000F022F8DC
:1009E00010BD00000C1401407F000020800000209A
:1009F00070B506460D461446012E05D105F17F015E
:100A0000C8B2FFF711FF04E005F1BF01C8B2FFF75C
:100A10000BFF03E02078FFF71FFF641C20780028FD
:100A2000F8D170BD00B5034603E04FF47A7000F0D2
:100A30000AF8181EA3F10103F7D100BD00BF411E43
:100A4000081EFCD1704700EBC001C9004FF0E02246
:100A50005161002191610521116100BF4FF0E0213A
:100A6000096901F480310029F8D004214FF0E02217
:100A700011617047FFF718FE0120FFF7D5FE0DA2A8
:100A800001210846FFF7B4FF0EA201210220FFF763
:100A9000AFFF0EE0FFF710FD0446FF2C09D00CA2BB
:100AA0000C210220FFF7A4FF22460C210220FFF7B1
:100AB000EBFEEFE74B6579626F61726420546573FA
:100AC000742100004B65792056616C75653A000011
:100AD00020202000F40A000800000020840000000C
:100AE0006C010008780B00088400002064060000F8
:100AF00088010008080F120F0A1F02020F090F09D0
:100B00000F0911001F11111F11111F00110A041FDD
:100B1000041F04000E001F0A0A0A13001818070811
:100B2000080807000F0F0F0A0F12071F00000E0022
:100B3000001F000057656C636F6D6520746F207532
:100B40007365212054656C3A313339313233343591
:100B50003637384D44442D312020033335382E307C
:100B60003004203230313400320130370220543D1D
:080B7000313505000000000012
:0400000508000131BD
:00000001FF
