:020000040800F2
:1000000060060020B1010008A9050008E50300080A
:10001000A50500086B0200081D070008000000008D
:10002000000000000000000000000000CD050008F6
:100030006F02000800000000AB050008B9060008C8
:10004000CB010008CB010008CB010008CB01000860
:10005000CB010008CB010008CB010008CB01000850
:10006000CB010008CB010008CB010008CB01000840
:10007000CB010008CB010008CB010008CB01000830
:10008000CB010008CB010008CB010008CB01000820
:10009000CB010008CB010008CB010008CB01000810
:1000A000CB010008CB010008CB010008CB01000800
:1000B000CB010008CB010008CB010008CB010008F0
:1000C000CB010008CB010008CB010008CB010008E0
:1000D000CB010008CB010008CB010008CB010008D0
:1000E000CB010008CB010008CB010008CB010008C0
:1000F000CB010008CB010008CB010008CB010008B0
:10010000CB010008CB010008CB010008CB0100089F
:10011000CB010008CB010008CB010008CB0100088F
:10012000CB010008CB010008CB010008CB0100087F
:1001300000F002F800F02CF80AA090E8000C8244CD
:100140008344AAF10107DA4501D100F021F8AFF2AA
:10015000090EBAE80F0013F0010F18BFFB1A43F0A5
:10016000010318473C0600004C0600000023002451
:1001700000250026103A28BF78C1FBD8520728BFB7
:1001800030C148BF0B6070471FB51FBD10B510BD13
:1001900000F031F81146FFF7F7FF00F0E5FA00F044
:1001A0004FF803B4FFF7F2FF03BC00F057F800006C
:1001B0000948804709480047FEE7FEE7FEE7FEE7FB
:1001C000FEE7FEE7FEE7FEE7FEE7FEE70448054937
:1001D000054A064B70470000BD06000831010008C3
:1001E0006000002060060020600200206002002005
:1001F000704770477047754600F02CF8AE46050012
:100200006946534620F00700854618B020B5FFF731
:10021000DDFFBDE820404FF000064FF000074FF033
:1002200000084FF0000B21F00701AC46ACE8C00914
:10023000ACE8C009ACE8C009ACE8C0098D4670471D
:1002400010B50446AFF300802046BDE81040FFF72C
:10025000A8BF000000487047000000200149182096
:10026000ABBEFEE726000200704700BFFEE7704706
:1002700008B50121202000F099F9F020ADF8000028
:1002800010208DF8030003208DF80200694608480D
:1002900000F010F80720ADF8000010208DF80300E2
:1002A00003208DF802006946014800F003F808BDFC
:1002B000001401402DE9F0410246002500260020EF
:1002C00000230024002791F803C00CF00F0591F8DB
:1002D00003C00CF0100CBCF1000F03D091F802C069
:1002E0004CEA050591F800C0BCF1000F31D014684C
:1002F00000202BE04FF0010C0CFA00F3B1F800C025
:100300000CEA03069E4220D183004FF00F0C0CFA3A
:1003100003F7BC4305FA03FC4CEA040491F803C05C
:10032000BCF1280F06D14FF0010C0CFA00FCC2F80A
:1003300014C00AE091F803C0BCF1480F05D14FF09A
:10034000010C0CFA00FCC2F810C0401C0828D1D3E4
:100350001460B1F800C0BCF1FF0F34DD5468002018
:100360002EE000F1080C4FF0010808FA0CF3B1F888
:1003700000C00CEA03069E4221D183004FF00F0C0F
:100380000CFA03F7BC4305FA03FC4CEA040491F8A9
:1003900003C0BCF1280F05D100F1080C08FA0CF8D5
:1003A000C2F8148091F803C0BCF1480F07D100F1E6
:1003B000080C4FF0010808FA0CF8C2F81080401C35
:1003C0000828CED35460BDE8F0810246002093682F
:1003D0000B400BB1012000E00020704741617047E5
:1003E0000161704700BFFEE710B5012000F06EF814
:1003F00010BD10B5FFF73CFF282000F067F8022081
:1004000000F08EF90C2000F061F8022000F088F96D
:10041000062000F05BF8022000F082F9012000F0D5
:1004200055F8022000F07CF910BD70B504460E4668
:100430000EB9E5B202E004F14000C5B245F080001B
:1004400000F044F845F0800000F040F870BD70B551
:1004500005460E46144631462846FFF7E6FF03E000
:1004600014F8010B00F068F820780028F8D170BD6E
:1004700010B51548006800F00F0040F0F000124978
:100480000860012110480C38FFF7A8FF02210E4830
:100490000C38FFF7A5FF00BF04210B480C38FFF70D
:1004A0009FFF052000F03CF9802107480C38FFF73A
:1004B0008CFF44B2042104480C38FFF78FFF04F08E
:1004C00080000028E8D110BD0C14014010B504468E
:1004D000FFF7CEFF01211748FFF780FF02211548E3
:1004E000FFF77CFF13480C30006800F00F0004F0A9
:1004F000F00108430F490C31086004210D48FFF753
:100500006FFF04210B48FFF769FF0A480C300068B1
:1005100000F00F00F02101EA0411084305490C31F5
:10052000086004210348FFF75BFF04210148FFF73F
:1005300055FF10BD0014014010B50446FFF798FFA9
:1005400001211748FFF74CFF02211548FFF746FF2E
:1005500013480C30006800F00F0004F0F00108436D
:100560000F490C31086004210D48FFF739FF0421C1
:100570000B48FFF733FF0A480C30006800F00F000B
:10058000F02101EA0411084305490C3108600421F7
:100590000348FFF725FF04210148FFF71FFF10BDA7
:1005A0000014014000BFFEE77047704729B1064ABA
:1005B00092690243044B9A6104E0034A92698243C0
:1005C000014B9A617047000000100240704710B55F
:1005D00000F002F810BD00000CB500200190009062
:1005E0003348006840F480303149086000BF30482B
:1005F000006800F4003000900198401C01900098C1
:1006000018B90198B0F5A06FF1D12948006800F43D
:10061000003010B10120009001E00020009000980F
:10062000012843D12348006840F0100021490860A8
:100630000846006820F0030008600846006840F0A3
:10064000020008601A484068194948600846406836
:1006500048600846406840F480604860084640684A
:1006600020F47C1048600846406840F4E810486078
:100670000846006840F08070086000BF0C480068C1
:1006800000F000700028F9D00948406820F003000D
:10069000074948600846406840F00200486000BFD3
:1006A0000348406800F00C000828F9D10CBD000098
:1006B00000100240002002407047000010B51348AF
:1006C000006840F001001149086008464068104980
:1006D00008400E494860084600680E4908400B492A
:1006E00008600846006820F48020086008464068DA
:1006F00020F4FE0048604FF41F008860FFF767FF9A
:100700004FF000600449086010BD00000010024076
:100710000000FFF8FFFFF6FE08ED00E000BFFEE777
:1007200000B5034603E04FF47A7000F005F8181E98
:10073000A3F10103F7D100BD00EBC001C9004FF0E8
:10074000E0225161002191610521116100BF4FF04C
:10075000E021096901F480310029F8D004214FF02B
:10076000E02211617047000010B5FFF742FEFFF76D
:100770003BFE06A200210846FFF769FE05A2012103
:100780000020FFF764FE002010BD0000312E4F69ED
:100790006C000000322E56656C6F6369747900003E
:1007A000B007000800000020600600006C0100088F
:0400000508000131BD
:00000001FF
