:020000040800F2
:1000000098040020450100089B1400088B13000889
:1000100099140008BD0200085116000800000000F5
:100020000000000000000000000000009F14000815
:10003000BF020008000000009D140008A114000881
:100040005F0100085F0100085F0100085F01000810
:100050005F0100085F0100085F0100085F01000800
:100060005F0100085F0100085F0100085F010008F0
:100070005F0100085F0100085F0100085F010008E0
:100080005F0100085F010008DD0100085F01000852
:100090005F0100085F0100085F010008C10200085D
:1000A0005F0100085F0100085F0100085F010008B0
:1000B0005F0100085F0100085F0100085F010008A0
:1000C0005F0100085F0100085F0100085F01000890
:1000D0005F0100085F0100085F0100085F01000880
:1000E0005F0100085F0100085F0100085F01000870
:1000F0005F0100085F0100085F0100085F01000860
:100100005F0100085F0100085F0100085F0100084F
:100110005F0100085F0100085F0100085F0100083F
:100120005F0100085F0100085F0100085F0100082F
:10013000DFF80CD000F040F8004800472118000814
:10014000980400200648804706480047FEE7FEE77F
:10015000FEE7FEE7FEE7FEE7FEE7FEE7FEE7FEE777
:100160001F15000831010008D2B201E000F8012B90
:10017000491EFBD270470022F6E710B513460A4627
:1001800004461946FFF7F0FF204610BD30B50B4678
:10019000014600202022012409E021FA02F59D42B7
:1001A00005D303FA02F5491B04FA02F52844151E8B
:1001B000A2F10102F1DC30BD064C074D06E0E0681B
:1001C00040F0010394E8070098471034AC42F6D39E
:1001D000FFF7B2FFD8180008F8180008014800F02F
:1001E00076B900001C00002070B5044600688168E4
:1001F000C943C90717D1816821F00101816000F06E
:100200001DFC05460AE000BF00F018FC401B022858
:1002100004D920688068C043C00706D02068806881
:10022000C043C007F0D0002070BDA06A40F01000AD
:10023000A062E06A40F00100E062012070BD0000B1
:10024000F8B500260446009600688168C943C907CE
:100250002DD0816841F0010181601648164900687F
:10026000B0FBF1F000E0401E00900028FBD100F050
:10027000E5FB054616E000BF00F0E0FB401B02284E
:1002800010D920688068C043C0070BD0A06A40F036
:100290001000A062E06A40F00100E06284F824608F
:1002A0000120F8BD20688068C043C007E4D1002069
:1002B000F8BD00001400002040420F00FEE7704728
:1002C00003480168491C01604FF4807000F0AEBA29
:1002D0000400002072B6FEE7F8B50025044600953C
:1002E00090F8240001280BD0012084F82400204637
:1002F000FFF77AFF2046FFF7A3FF060002D050E089
:100300000220F8BDA06A20F4885040F00200A062EC
:10031000022000F031FC25490968B1FBF0F04000F3
:1003200000E0401E00900028FBD12068816841F069
:100330000801816000F082FB074608E000F07EFBC8
:10034000C01B0A2803D920688068000715D42068DC
:1003500080680007F2D42068816841F00401816060
:1003600000F06CFB074612E000F068FBC01B0A2897
:100370000DD920688068400709D5A06A20F00200E6
:1003800040F01000A06284F824500120F8BD2068DD
:1003900080684007E8D4A06A20F0020040F0010025
:1003A000A06284F824503046F8BD000014000020FC
:1003B00070470000F8B50024009490F824202546EA
:1003C000012A12D0012280F824204A681F23072A1C
:1003D0000DD20668776B521E02EB820293409F4358
:1003E0000B6893401F43776319E00220F8BD06684D
:1003F0000D2A0AD2376BD21F02EB820293409F4331
:100400000B6893401F43376309E0F76A0D3A02EB2C
:10041000820293409F430B6893401F43F7620A6830
:10042000072306680A2A0AD3F7680A3A02EB42024F
:1004300093409F438B6893401F43F76008E0376900
:1004400002EB420293409F438B6893401F43376106
:100450000A68102A01D0112A20D1124B02689A4250
:1004600017D193681B0219D4936843F40003936077
:100470000968102912D10C490C4A0968B1FBF2F144
:1004800001EB8101490000E0491E00910029FBD1E8
:1004900004E0816A41F020018162012480F8245047
:1004A0002046F8BD002401401400002040420F0007
:1004B00010B5034800F008F80249086010BD0000BC
:1004C0001C000020000000200068C06C704770B560
:1004D0000446006806684568A90625D5B10723D5F6
:1004E000A16AC90603D4A16A41F40071A1628168BE
:1004F000C1F34241072910D1217B71B9416821F034
:1005000020014160A06A20F48070A062A06AC0044B
:1005100003D4A06A40F00100A0622046FFF7C8FFA4
:1005200021686FF01200086028062ED570072CD5C0
:10053000A06AC00603D4A06A40F40050A0622068FC
:100540008168C1F30231072909D04168490515D4F2
:100550008168C1F34241072910D1217B71B94168FB
:1005600021F080014160A06A20F48050A062A06A5E
:10057000C00503D4A06A40F00100A0622046FFF746
:1005800017FF21686FF00C00086068060CD5F007B3
:100590000AD0A06A40F48030A062204600F096F8AD
:1005A00021686FF00100086070BD00002DE9F04186
:1005B00004004FF000057FD0A06A002628B9E6624B
:1005C00084F82460204600F083F82046FFF70CFEF4
:1005D000A16AC90600D420B1A06A40F01000A06250
:1005E0006AE0A16A21F4885141F00201A162334915
:1005F00023688B42E16904D1B1F5402F01D14FF45A
:100600000021277B4FF4807C41EA470261680A435E
:10061000A168614508D0012906D0002194F814E0B2
:10062000BEF1010F02D00AE06146F7E7C7B1A76A41
:1006300047F02007A762E76A47F00107E7625F68B3
:1006400027F469470F435F60236899681C4F39405E
:1006500011439960A16861450BD0012909D00CE0D4
:10066000DFF860E0A7690EEB47370F4347F40061FE
:10067000E5E7218A0D05A5F580152168CB6A23F4ED
:1006800070032B43CB62216889680F4B194091425C
:1006900008D1E662A16A21F0020141F00101A162E4
:1006A000BDE8F081A06A20F0020040F01000A062D6
:1006B000E06A40F00100E0620120F1E7003C014007
:1006C000FDF7E1FF00E0FFFFFE0E1FFF7047000097
:1006D00000B585B00021009101910291039100685D
:1006E0001249884220D11248816941F40071816128
:1006F000816901F400710491816941F0080181610F
:100700008069694600F008000490012000900320F1
:100710000190084800F096F800221146122000F0DF
:10072000F9F9122000F0E8F905B000BD00240140FD
:1007300000100240000C014070B5044690F82400FF
:1007400001280DD0012084F824002046FFF778FD11
:1007500002004FF0000005D084F82400104670BD60
:10076000022070BDA16A40F60163994341F4807193
:10077000A162224D23682249AB4218D10E6816F4BB
:10078000702F14D0A66A46F48016A6620E6876050D
:1007900005D5A66A26F4005646F48056A662A66AD7
:1007A000F6040AD5E66A26F00606E66206E0A66AC0
:1007B00026F48016A6625E68E9E7E06284F8240009
:1007C0006FF0020018602068436843F02003436024
:1007D00020688368C3F34243072B05D1A84208D1A0
:1007E000096811F4702F04D0816841F48011816090
:1007F000B4E7816841F4A001F9E700000028014056
:100800000424014070B5044600F018F90546601C48
:1008100002D004480078044400F010F9401BA042C4
:10082000FAD370BD0800002070470000044910B5DD
:100830000A68024202D00860FFF7F6FF10BD000010
:10084000140401402DE9F84FDFF8C8910024A9F104
:10085000040B23460F2709F1040AABF1040ED1E083
:100860000125A54006EA0502AA4276D1DFF8A8C113
:100870004E68A6EB0C0866452BD00DDC032E34D059
:1008800005DC36B3012E19D0022E2FD11BE0112E1C
:1008900016D0122E2AD119E0B8F5881F19D006DC1F
:1008A000B8F5803F15D0B8F5801F1FD111E0B8F51D
:1008B000001F0ED0B8F5041F18D10AE0CB6815E070
:1008C000CB681B1D12E0CB6808330FE0CB680C33FC
:1008D0000CE08B682BB1012B4FF0080303D045616E
:1008E00004E0042302E0056100E00023FF2A01D8B0
:1008F000064601E000F104064FEA840501D9A5F19E
:100900002005D6F8008007FA05FC28EA0C0803FA4F
:1009100005F548EA0508C6F800804D68ED0070D579
:100920003E4DAE6946F00106AE61AD6924F00306A6
:1009300005F0010500953A4D06EB050CDCF8085072
:10094000A607360F07FA06F825EA0805DFF8D4806F
:10095000404503D14FF0000825E052E0DFF8C880A1
:10096000404502D14FF001081DE0DFF8C08040454E
:1009700002D14FF0020816E0DFF8B480404502D102
:100980004FF003080FE0DFF8AC80404502D14FF094
:10099000040808E0DFF8A080404502D14FF00508C8
:1009A00001E04FF0060808FA06F848EA0508CCF816
:1009B00008804D68D9F80060ED024D4601D5164318
:1009C00000E096432E604D68DAF80060AD025546AF
:1009D00001D5164300E096432E604D68DBF80060B9
:1009E000AD035D4601D5164300E096432E604D6889
:1009F000DEF80060ED03754601D5164300E096432E
:100A00002E60641C0A681646E2407FF429AFBDE8F8
:100A1000F88F00000804014000001110001002408F
:100A20000000014000080140000C0140001001409E
:100A30000014014000180140001C0140014880687A
:100A400070470000080000200248816802781144C5
:100A50008160704708000020074810B5016841F028
:100A600010010160032000F075F80F2000F006F877
:100A700000F024F8002010BD0020024070B50D4D9C
:100A800004464FF47A712878B1FBF0F00A490968FE
:100A9000B1FBF0F000F0AEFB48B9102C07D20022F9
:100AA0002146501E00F036F800206C6070BD012019
:100AB00070BD000008000020140000200C4808B59C
:100AC000816941F001018161816901F001010091B9
:100AD000C16941F08051C161C06900F0805000904F
:100AE0000448416821F0E06141F00071416008BDB7
:100AF0000010024000000140002809DB00F01F0246
:100B0000012191404009800000F1E020C0F800116F
:100B100070470000F0B40E4B1B680C46C3F3022371
:100B2000C3F10705042D00D90425191D072901D299
:100B3000002300E0DB1E012606FA05F1491E2140D4
:100B400099409E40761E16403143F0BC00F092BDA5
:100B50000CED00E0064900F0070208684FF6FF03BD
:100B6000184040EA0220034A104308607047000022
:100B70000CED00E00000FA0510B501460020284CFD
:100B800004292FD00BDC012930D0022929D100F013
:100B90006BF96168C1F38131491C49001FE00829E4
:100BA00020D010291DD161682268D20119D51D48B5
:100BB000C1F38342C903805C0AD56168194AC1F355
:100BC0004041921E515C184AB2FBF1F1484301E0EA
:100BD000164948436168490203D440000321B0FB31
:100BE000F1F010BDBDE8104000F04EB9226AC2F32A
:100BF0000121012903D1920701D5C80310BD0229A3
:100C000005D1626A920702D549F6404010BD03291A
:100C1000FCD121688903F9D54FF2244010BD0000B2
:100C200000100240B018000800127A0000093D00D0
:100C30002DE9F84305460078354CC00754D0E069EB
:100C40000026C00008D4E06940F08050E061E0690F
:100C5000012600F0805000902E480168C90512D48A
:100C60000168804641F480710160FFF7E7FE0746A6
:100C700005E000BFFFF7E2FEC01B642823D8D8F8C8
:100C80000000C005F6D5206A10F4407021D0A98874
:100C900001F4407181421CD0206A1F49012220F4D6
:100CA00040700A6000220A602062C00711D0FFF77E
:100CB000C5FE074641F2883808E000BFFFF7BEFED8
:100CC000C11B414502D90320BDE8F883206A800793
:100CD000F4D5206A696820F44070084320621EB190
:100CE000E06920F08050E0612878800705D56068D1
:100CF000A96820F44040084360602878C00605D504
:100D00006068696920F48000084360600020DBE7C8
:100D10000010024000700040400442422DE9F047BC
:100D20000F46050061D0434E306800F00700B8421E
:100D300009D2306820F0070038433060306800F096
:100D40000700B84251D128683B4C810712D54007B3
:100D500003D5606840F4E06060602878000703D540
:100D6000606840F4605060606068A96820F0F0003E
:100D7000084360602878C00728D06868012810D030
:100D80002168022810D0890700292EDA616821F035
:100D9000030101436160FFF751FE804641F288394B
:100DA0000DE021688903EFE78901EDE7FFF746FED3
:100DB000A0EB0801494502D90320BDE8F08760682F
:100DC000696800F00C00B0EB810FEFD1306800F0E3
:100DD0000700B8420BD9306820F007003843306074
:100DE000306800F00700B84201D00120E5E728781C
:100DF000400705D56068E96820F4E060084360605A
:100E00002878000706D56068296920F4605040EA18
:100E1000C100606000F038F86168084AC1F303114E
:100E2000515CC8400649086006480068FFF726FE86
:100E30000020C2E70020024000100240C018000855
:100E4000140000200C00002004480549006849688F
:100E5000044AC1F30221515CC840704714000020CD
:100E600000100240D018000804480549006849688D
:100E7000044AC1F3C221515CC840704714000020ED
:100E800000100240D01800080E4A51680E4801F0C8
:100E90000C03042B11D0082B0FD10C48C1F3834352
:100EA000C903C05C0AD55168084AC1F34041921E8B
:100EB000515C054A5043B0FBF1F070470449484388
:100EC000704700000010024000127A009E180008CF
:100ED00000093D002DE9F84F040070D02078C04D86
:100EE000C00749D06868C0F38100012807D068684E
:100EF000C0F38100022809D16868C00306D52868BC
:100F0000800339D560680028E7D035E06068B0F527
:100F1000803F0BD010B1B0F5A02F11D0286820F47D
:100F200080302860286820F4802002E0286840F49F
:100F300080302860606890B1FFF780FD06460AE0C7
:100F4000286840F480202860F0E700BFFFF776FDB6
:100F5000801B642873D828688003F7D50CE0FFF75E
:100F60006DFD064605E000BFFFF768FD801B6428A5
:100F7000F0D828688003F7D420789A4E80074FF085
:100F800001094FF0000839D5686810F00C0F07D040
:100F90006868C0F38100022809D16868C00306D4DC
:100FA0002868800714D52069012808D110E020693D
:100FB000B0B1C6F80090FFF741FD074605E00AE131
:100FC000FFF73CFDC01B0228C4D828688007F7D56E
:100FD0002868616920F0F80040EAC10028600DE04F
:100FE000C6F80080FFF72AFD074604E0FFF726FD5C
:100FF000C01B022823D828688007F7D42078000770
:101000002CD57948A169D9B1C0F80090FFF716FD39
:10101000074604E0FFF712FDC01B02280FD8686ADC
:101020008007F7D571484FF4FA510068B0FBF1F032
:10103000009000BF0098411E0091FAD20EE080E0BF
:10104000C0F80080FFF7FAFC074604E0FFF7F6FC63
:10105000C01B022875D8686A8007F7D4207840073B
:1010600060D5E8690027C00008D4E86940F08050E6
:10107000E861E869012700F0805000905C48016851
:10108000C90513D40168834641F480710160FFF7FC
:10109000D5FC824606E000BFFFF7D0FCA0EB0A00BB
:1010A00064284ED8DBF80000C005F5D5E0680128BB
:1010B0000AD008B1052813D0286A20F00100286260
:1010C000286A20F0040002E0286A40F0010028624B
:1010D000E06841F2883B98B1FFF7B0FC82460BE034
:1010E000286A40F004002862EEE700BFFFF7A6FC84
:1010F000A0EB0A0159455AD8286A8007F6D50CE0BA
:10110000FFF79CFC824605E0FFF798FCA0EB0A0184
:1011100059454CD8286A8007F6D41FB1E86920F0F9
:101120008050E861E06988B36968C1F381010229F0
:1011300044D00228C6F8608004D0FFF77FFC044644
:1011400038E034E0FFF77AFC074604E0FFF776FC6E
:10115000C01B02282BD828688001F7D4206AB0F57C
:10116000803F05D16868A16820F4003008436860BA
:10117000D4E908010843696821F4741108436860E0
:10118000C6F86090FFF75AFC044606E025E000BF71
:10119000FFF754FC001B022809D828688001F7D506
:1011A0001BE000BFFFF74AFC001B022802D9032006
:1011B000BDE8F88F28688001F4D40EE00128F7D04C
:1011C0006868226A00F48031914204D1616A00F4B7
:1011D0007010884201D00120EAE70020E8E7000013
:1011E00000100240000042428004424214000020ED
:1011F0000070004010B5401EB0F1807F01D3012087
:1012000010BD4FF0E02460610F21601700F032FA4A
:101210000020A06107202061002010BD70B50400EF
:1012200004D094F84100002510B106E0012070BD03
:1012300084F84050204600F023F8242084F8410030
:101240002068C16821F40051C160204600F068F9AF
:101250002068016921F4904101612068416921F011
:101260002A0141612068C16841F40051C160656490
:10127000202084F8410084F842006563002070BD9E
:1012800030B585B000240094019402940394006862
:101290001449884224D11448816941F48041816114
:1012A000816901F480410491816941F00401816107
:1012B00080690E4D00F0040004904FF4007000901F
:1012C000022001900320039069462846FFF7BAFAEE
:1012D0002815CDE90004694628460294FFF7B2FAC2
:1012E00005B030BD00380140001002400008014048
:1012F0002DE9F843044690F841001F4616460D4676
:10130000202802D00220BDE8F8837DB176B100200C
:101310006064212084F84100FFF790FBA68480469A
:10132000E684A068B0F5805F02D003E00120EAE720
:10133000206910B12E4600250EE000260CE0802129
:10134000204600F049F9A0B9AEB116F8010B2168AA
:101350004860E08C401EE084E08C43464FF0000281
:1013600000970028EBD14FF04001204600F034F9FF
:1013700030B10320C7E735F8020BC0F30800E6E7F9
:10138000202084F841000020BDE7FEE73EB50024A0
:1013900011480094019402940E4984600160012573
:1013A0000573047505614FF460214460C161FFF766
:1013B000FDF808B1FEF78EFF0820CDE9000569466B
:1013C00002940548FEF7F6FF002801D0FEF782FFE1
:1013D0003EBD0000002401401C00002010B586B076
:1013E00000241B4802940394816941F00801816143
:1013F000816901F008010491816941F01001816166
:10140000816901F010010491816941F00401816159
:101410008069694600F004000490012000900320D8
:1014200001900C48FFF70EFA4FF4807000900A48C4
:10143000CDE9010469460948FFF704FA0022114684
:101440001720FFF767FB1720FFF756FB06B010BD0C
:1014500000100240000C014000001110001001407B
:101460000C4810B50A4901604FF4E1314160002198
:1014700081600C22C160C0E904128161C161FFF783
:10148000CDFE002803D0BDE81040FEF723BF10BDFD
:10149000003801404C000020FEE7FEE7704770472F
:1014A000FFF7D2BA30B595B028216846FEF763FE43
:1014B00014210AA8FEF75FFE18210FA8FEF75BFEB5
:1014C00001210804CDE900100025029502240491B1
:1014D000CDE907404FF4E01009906846FFF7FAFCA9
:1014E00008B172B6FEE70AA90F2081E831004FF477
:1014F0008060CDE90D0502210AA8FFF70FFC08B1B5
:1015000072B6FEE74FF4004011900F940FA8FFF75A
:101510008FFB002801D072B6FEE715B030BD7047D2
:1015200070B5044600680169E26821F44051114336
:1015300001612169A0680843616908432168CA689C
:1015400041F20C639A430243CA6020684169A26970
:1015500021F44071114341611E492068884202D143
:10156000FFF782FC01E0FFF76FFC00EBC00101EB2D
:101570000012606864218000B2FBF0F3B3FBF1F36A
:101580006FF018067343B2FBF0F5B2FBF0F605EB13
:101590008305322303EB0515B5FBF1F5B6FBF1F638
:1015A00005F0F00505EB0615B2FBF0F6B2FBF0F026
:1015B000B0FBF1F06FF01802504306EB800003EB34
:1015C0000010B0FBF1F0216800F00F0028448860A3
:1015D00070BD0000003801402DE9F04198461746E3
:1015E0000E460446069D27E0681C25D02DB1FFF766
:1015F00025FAA0EB0800A8421ED920680C3050E85C
:10160000001F21F4D07140E80012002AF5D12068B3
:10161000143050E8001F21F0010140E80012002AB8
:10162000F5D1202084F8410084F84200002084F89D
:1016300040000320BDE8F0812068006836EA000021
:1016400004D00020B842CFD00020F3E70120F9E712
:10165000FEE700000FB4054B10B503A9044A029839
:1016600000F028F810BC5DF814FB00000918000811
:10167000180000200907090E002804DB00F1E02013
:1016800080F80014704700F00F0000F1E02080F8AF
:10169000141D704702E008C8121F08C1002AFAD1C1
:1016A00070477047002001E001C1121F002AFBD1E2
:1016B000704700002DE9FF4F89B09B460446002586
:1016C00006E025280BD05A460B999047641C6D1CE8
:1016D00020780028F5D10DB02846BDE8F08F00270E
:1016E000B8460122474900E0074314F8013F203B78
:1016F00002FA03F00842F7D120782E2819D114F805
:10170000010F47F004072A280ED06FF02F0220782F
:10171000A0F1300109290CD808EB880102EB410146
:1017200000EB0108641CF2E70A98641C50F8048B73
:101730000A9020780028CED0642808D0692806D0E6
:1017400075281ED05A460B9990476D1C58E00A998F
:101750004FF00A0901C90A91002802DA40422D21FE
:1017600002E0390504D52B218DF82010012103E07A
:10177000F90704D02021F7E78A4608AE0DE00021E2
:10178000FAE70A994FF00A0901C90A91F7E74946B1
:10179000FEF7FCFC303106F8011D0028F7D1ADEB57
:1017A000060000F12009780701D44FF00108C84570
:1017B00002DDA8EB090000E000208046002706E0DB
:1017C00008A85A46C05D0B9990476D1C7F1C574571
:1017D000F6DB04E030205A460B9990476D1CB8F1B7
:1017E0000001A8F10108F5DC05E016F8010B5A46E6
:1017F0000B9990476D1CB9F10001A9F10109F4DCC6
:10180000641C65E70928010013B54FF6FF73012238
:1018100069460248FFF76CFD00981CBD4C00002093
:10182000FFF71AF9FFF73EFEFFF7D8FDFFF718FEA6
:10183000FFF7ACFD0F48FEF74FFD0E48FEF77CFFAB
:1018400000250D4C01264FF47A7720686421484327
:10185000C11700EB115006EB203108A0FFF7FAFE8C
:101860000AA06168FFF7F6FE38466560FEF7CAFF1A
:10187000EBE700001C000020000000206E312E76F7
:10188000616C3D2564FFFFFF00000000706167652B
:10189000302E7069633D2564FFFFFF0001020203E3
:1018A0000405060708090A0B0C0D0E0F10100102A3
:1018B00002030405060708090A0B0C0D0E0F101091
:1018C00000000000000000000102030406070809F0
:1018D0000000000001020304F818000800000020C6
:1018E0001C00000094160008141900081C000020B9
:1018F0007C040000A41600080000000000000000A6
:101900000100000010000000000000000024F400AE
:0419100000000000D3
:0400000508000131BD
:00000001FF
